:10000000E20F0400000000000000000000000000FB
:1000100000000000000000000000000000000000E0
:1000200000000000000000000000000000000000D0
:1000300000000000960E000000000000000000001C
:10004000000000005A0E0000000000000000000048
:1000500000000000DE0E00000000000000000000B4
:100060000000000000000000000000000000000090
:100070000000000000000000000000000000000080
:100080000000000000000000000000000000000070
:100090000000000000000000000000000000000060
:101FC4000FE62000F0FF200020A0B7000000200052
:101FD40034A0B700400020004420B7009C10020049
:101FE4000000000043FE07000020EF00E0728800BC
:101FF4000020EF00F07288000020EF00D07288000B
:102004000020EF00807288000020EF000220EF0023
:1020140090728800A1728800E1E420000020EF00A3
:102024008048780091DF20000020EF00804878008D
:10203400B1E220000020EF0080487800F1E42000A5
:102044000020EF00804878000020EF00C072880074
:10205400CCA2A900C482A90061E520000020EF0001
:0820640080487800FFFF3700FF
:1018F8008A1F78008B1F7800407420009040780081
:1019080000CEB30080C06000407420000148780019
:101918006002200046A7B70040742000904078007D
:10192800F0C3B30080C06000407420000148780014
:10193800D0FF2F002CA3B700C022A80000F42F006E
:10194800C8A2B700C8A2A900C082A9002143A90063
:1019580001198000F0CF2F000080600020A3B7009D
:101968002063A90021A3A9002043A8000032200079
:1019780090407800F0C1B30080C0600000322000C1
:101988000148780011198000F0FF210000806000F4
:1019980022A3B70011198000F0CF2F00008060004B
:1019A80022A3B7002343A9002223A9002203A900E8
:1019B80025E3A90020C0B300804078004032200011
:1019C80090C06800F0CFB30080C0600040322000B3
:1019D80090C06800403220000148780000202000B4
:1019E80080007800403220009080680000F02100DC
:1019F80080806000403220009080680021198800B3
:101A080029E3A9000010200080007800803220001F
:101A18009080680000F02100808060008032200003
:101A2800908068004119880028E3A90010C0B3001D
:101A3800804078008032200090C06800FFC06000BD
:101A48008032200090C06800803220000148780071
:101A58002623EF003023EF0021E3A8000000280030
:101A680004A1B7009460A8008460A900800C20003D
:101A780002A1B70005E1A9000000280010A1B700E5
:101A880094E0A80084E0A900401F20000CA1B70042
:101A980011E1A90060C0B30080407800406A2000CE
:101AA80090C06800FFC06000406A200090C06800D5
:101AB800406A20000148780000302000800078004B
:101AC800606C20009080680000F021008080600039
:101AD800606C200090806800313688009560A8000E
:101AE8008560A9000AB024000B002000CFFE070083
:101AF8000000260080007800400A200090806800DE
:101B08000000270080806000400A20009080680064
:101B18002105880031058000000027000080700042
:101B2800A6A0B7000000250080007800800A2000E9
:101B3800908068000000270080806000800A2000F4
:101B4800908068004105880058012000B78525006D
:101B58000E20ED00FEFF3A001020ED00FCFF3A00D9
:0C1B6800CF0578004F0578000000060053
:101634000800FA00609B200060728800A0DB200094
:10164400406F8800F0FF2F00506F8800A0782000C2
:10165400306F88002022EF000000280022A2B7008B
:101664002062A90083FF07000001BE00803E200025
:101674000100200043FF07000001BE0080FF0700B7
:101684004100DE00640040008000780060004700F4
:101694000A88BE008100E900030035001018D0005C
:1016A4001090D200FBFF3700829FBE008A9FBE00CD
:1016B4000200BE000E0190009E0190000002EB00AB
:1016C40039FF07004F05BE004F01BE0020079800F8
:1016D400310798008A9FBE000200BE000E019000F0
:1016E4009E0190000002EB0067FF07004F05BE005B
:1016F4008001780001027800600047005001D100A9
:10170400C080D300640047003008E1002090E1006D
:101714000700310061804100E0004A008002780047
:101724000103780005017800860178000200370083
:1017340003017800840178000280710033003A00CC
:101744004CFF07000001BE00803E20000100200085
:101754000CFF07000001BE0049FF07004100DE0046
:1017640000A0EC0080007800600047000A88BE00FA
:101774008100E900030035001018D0001090D20059
:10178400FBFF3700829FBE000200BE000E019000E6
:101794009E0190000002EB0003FF07004F01BE0012
:1017A40020079800310798000200BE000E01900047
:1017B4009E0190000002EB0033FF070080017800D7
:1017C40001027800600047005001D100C080D300BE
:1017D400640047003008E1002090E1000700310078
:1017E40061804100E0004A00800278000103780033
:1017F40005017800860178000200370003017800B3
:10180400840178002062A8000000370061005100C4
:10181400E0805900401188002222A90021E2A8009A
:101824002342A8000CFF07000BFF07000080FA000A
:0418340000000600AA
:0C14780000882300110020000000060086
:0814840020002000000006001A
:10145C00D8002000775023000E20ED00FEFF3A004C
:0C146C001020ED00FCFF3A00000006001C
:101388000000FA00020AB800500088000200B80005
:1013980081004200032AB800810042000080FA0060
:0413A800000006003B
:1013AC000000FA00020007002A0A040000000000F6
:1013BC000800E20002003A001000070000000600DE
:1013CC00811F78000200E20002003D006000100066
:1013DC00E08018000600E20002003D0060011100F0
:1013EC00E0811900050007004F00E00002003B00FF
:1013FC0060001000E08018000000060002000700EA
:10140C000480BE00000006006022B8000602200026
:10141C000000D0008180D2000482D2008582D200EC
:10142C000000A8000202520083825A0003003B0015
:10143C000202420083824A000000A1000603E90078
:10144C00F3FF3A00000006000080FA0000000600DE
:00145C0090
:10148C000000FA0002000700940A040000000000AB
:10149C000800E20002003A001000070000000600FD
:1014AC00839F68000200E20002003D006000100013
:1014BC00E08018000600E20002003D00600111000F
:1014CC00E0811900050007004F00E00002003B001E
:1014DC0060001000E0801800000006006022B800D8
:1014EC00060220000000D0008180D2000482D200CD
:1014FC008582D2000000A8000202520083825A00AA
:10150C0003003B000202420083824A000000A1005B
:10151C000603E900F3FF3A00000006000080FA0021
:04152C0000000600B5
:1021380001802000A008290008000900B0187800D4
:04214800000006008D
:101DBC003400F8003600F800801F78002000200066
:101DCC000C000900B01F78008A1F78008B1F780068
:101DDC008560A90064FF0700F1E4200080487800CA
:101DEC0090DF2000104078006204E10014003A00FB
:101DFC0030E020009080FB0080E520001008E1001E
:101E0C0009003600C1E1200080E5200090804000F0
:101E1C00F0E42000904878001100200080E52000BC
:101E2C00108840000600370091DF20000020EF00F2
:101E3C0080487800B1E2200010C0B30080487800E0
:101E4C0090DF2000104078006004E1000E003A00A2
:101E5C00B0E22000104078006004E1000A003A0073
:101E6C00F0E4200090407800A0C3B300000CE10027
:101E7C0005003A0091DF200010C0B30080487800C4
:101E8C000020EF00C072880090DF20001040780026
:101E9C006104E10010003A00F0E42000904078006A
:101EAC00A0C3B300000CE1000B003200C072800034
:101EBC006400E1000800310001E0200080E5200012
:101ECC0090804000F0E42000904878001100200041
:101EDC0080E520001088400090DF20001040780042
:101EEC006104E1001B003A00C07280006400E10054
:101EFC0018003A0000E02000104078006304E10074
:101F0C000600320000E0200090407800F0CFB300D3
:101F1C00000CE10001003200060037000020EF0049
:101F2C00C072880091DF200020C0B3008048780088
:101F3C000800370091DF20000020EF008048780077
:101F4C00B1E220000020EF00804878000020EF0074
:101F5C00C0728800B0E22000104078006104E100FB
:101F6C000C003A0058012000B78525000E20ED002A
:101F7C00FEFF3A001020ED00FCFF3A00CBE1200000
:101F8C000AE02000FEFE0700B1E220000020EF0076
:101F9C0080487800CF0578004F057800A00120001C
:101FAC000C0009004F1078004F0078003600F90043
:081FBC003400F90000400600AA
:101B74000000FA0000000000000000002682BF0000
:081B84000080FA0000000600D9
:101B8C000600FA008A1F78008B1F78008C1F7800E3
:101B9C00600047000002780061004500904078002A
:101BAC006200450010407800340037005DFE0700ED
:101BBC0038003700200037009440780050E02000B7
:101BCC0001487800610042009040780060E02000FD
:101BDC0001487800E300450020C0B300804878003D
:101BEC005CE020008A0578001AC0B3000FFF0700E4
:101BFC00190037009440780050E02000014878002C
:101C0C00610042009040780060E0200001487800BC
:101C1C00E300450020C0B300804878005CE0200061
:101C2C008A0578001AC0B30000FF07000A003700CD
:101C3C0009003700080037006104E100DEFF3200C4
:101C4C006204E100EBFF32006304E100F8FF3200B4
:101C5C006404E100F7FF32000E003700E30045009A
:101C6C00A0C0B300804878004C8020008A05780022
:101C7C001AC0B300EDFE070006003700610CE1004E
:101C8C00CAFF3200620CE100CAFF3200640CE100B2
:101C9C00F2FF32004F067800CF0578004F05780030
:081CAC000080FA0000000600B0
:1015300081DF20000020EF00804878000020EF00CD
:101540000220EF00D06F8800E16F88000020EF00DC
:101550000220EF00A06F8800B16F88000020EF002C
:101560000220EF00606F8800716F88000020EF009C
:101570000220EF00806F8800916F880080DF2000DC
:10158000104078007E04E10022003D0067FE070065
:1015900090728000A1728000806F8800916F880037
:1015A00090728000A1728000626F8000736F800073
:1015B000D6FC0700020020000304240066FF070099
:1015C0000000E0000060EF0001003C000060EC0063
:1015D0000040E2000A003200D26F8000E36F80001A
:1015E000806F8000916F800085FB0700D06F8800BE
:1015F000E16F880011C0B30080DF200010C84000F8
:10160000806F8000916F8000606F8800716F88002C
:10161000DAFF370002002000031F2400D06F800093
:10162000E16F80002BFD0700A06F8800B16F88007C
:0416300000000600B0
:100F2C000C00FA00C482A800E1E420000020EF00CD
:100F3C00804878000020EF00206F8800CA42A9008A
:100F4C0005E1A9000621EF0011E1A8000020EF0047
:100F5C00E0728800E0E42000104078006104E100B9
:100F6C0001003200FBFF3700E0E420001040780065
:100F7C006104E10066003A00C01F20007040880048
:100F8C000020EF009040880091408000E015200088
:100F9C000008E1005B00310090408000C100DD00E2
:100FAC00608120008101400013017800E180200065
:100FBC00408120001108510093007800E08020004F
:100FCC001008E1000B00310090408000C100DD00F2
:100FDC0060812000810040007040800011005000B2
:100FEC004100DD0011014000E18020004081200023
:100FFC001108510040012000706C8800706C80005A
:10100C006000E1000F003200706C8000C200DD0057
:10101C0000D9200001014000706C80000020ED0020
:10102C00C200DD0000D9200001004000301978001A
:10103C002011780011002000E0D82000108810004A
:10104C00EEFF3700A04080008000EB0043FE07005D
:10105C00806C8800916C88000020EF000220EF006B
:10106C0000408800114088000020EF00706C880060
:10107C00706C80007500E10015003100706C800010
:10108C004201DD006003290082004000B1017800BC
:10109C002102780000D92000020140001200BE009D
:1010AC00030178008401780088FD0700024080006D
:1010BC0013408000CFFC07000040880011408800DE
:1010CC0011002000E0D8200010884000E8FF370015
:1010DC0000408000114080004FFF070080408800D6
:1010EC00914080004109DD0021AD2000828040004C
:1010FC00800878001100200020812000108840001A
:10110C00A1FF3700E1E4200020C0B3008048780044
:10111C00E0E42000104078006204E10088003A000E
:10112C0060E32000801F7800E0152000801F78000D
:10113C0020AD2000801F7800F6FD07006F00B10085
:10114C00F06F8800B0718000C07188000020EF0043
:10115C00A0718800A0718000C100DD0020AD2000CE
:10116C000100400090007800E0DF20001008E10052
:10117C00040031001100200040E3200010884000E2
:10118C00F4FF3700C171800040E320001080500054
:10119C00C100DE0040E32000908040008171880097
:1011AC007480500090718800F4814000D3718800E5
:1011BC00C100DD0020AD20000100400010017800CE
:1011CC0042728800C118DD0020AD200001004000F3
:1011DC001000780000079800507288000200780018
:1011EC00CF80DE000081EB00DCFD0700400798009B
:1011FC00510798002072880031728800F06F8000CF
:10120C00CF80DE000081EB00D4FD070020079800A2
:10121C0031079800E0718800F17188000E00900091
:10122C00CF80DE000081EB00CCFD070000079800AA
:10123C0011079800809FBE000E0090009E00900049
:10124C0000728800117288004F00BE004E009000A2
:10125C00DE009000829FBE000E0190009E01900067
:10126C00A7FD07004F01BE002E019000BE019000AB
:10127C00200798003107980000002000010024008E
:10128C0012FD0700000798001107980020728000DB
:10129C0031728000829FBE000E0190009E01900072
:1012AC0097FD07004F01BE00027280001372800090
:1012BC0050FC0700020020000300240003FD07007F
:1012CC0000079800110798002E009000BE009000B7
:1012DC00829FBE000E0190009E019000FAFD070057
:1012EC004F01BE00607188007171880002002000FF
:1012FC00031A2400F5FC070002002000030A240056
:10130C00F2FC0700A0708800B1708800807180002A
:10131C008000EB0091FD070002002000030A24006E
:10132C00EAFC0700C0708800D1708800A2708000B1
:10133C00B37080002FFC070090728800A1728800A7
:0C134C00C482A9000080FA000000060026
:100920000000FA002EB997003EB89700CEB89700A5
:10093000B10278000009EB000002E9000700340072
:10094000B10178000328E10002003C005300880058
:10095000040950000402E900F9FF3C00050088008A
:080960000080FA00000006000F
:100968000000FA000200070066050400000000000D
:100978000400E20006003A000005EB000200E20075
:100988000F003E000000E200270032000C00370094
:10099800A10088000200E2000400350008003C00C5
:1009A8000000E2002000320005003700600010005F
:1009B800E080180002003B0001F02C001A0037000C
:1009C8000084BE006011B8006B0920000982CF00C6
:1009D800020039000882CF000441B0006942520089
:1009E8000E00320008003B00828171006101640042
:1009F8008904D1000884D3008B05E8000442E8008C
:100A0800F9FF3A00050037000804440089844C00C7
:100A18008B05E9000442E900FBFF3A0003000700E8
:100A28000AF0A70003E0A8000000060081002000EB
:100A3800618055000B003D000B00200061FE2F0077
:100A48000100E1001D003400828171006101640031
:100A58008904D1000884D3000000E800FAFF3A00B6
:100A68007100200061006400030070000200600053
:100A78000900320061044400E0844C000988A500A4
:100A8800050032008B05E8006808E10002003A0022
:100A98008904D1000884D300F20F20000258E10035
:100AA80005003D00C75DDD00F907B20089807500CB
:100AB80008008800000006000BF827001B008800CB
:0C0AC800000005000080FA00000006009D
:10090C000000FA0007E0AA00BAFE07000080FA0017
:04091C0000000600D1
:100400000000FA000200070068030400000000007A
:10041000889FBE008A9FBE008C1F7800590007008D
:10042000600033006450E1004F0032006420E100BE
:100430005200320003826C0007003B000905D00027
:100440000306D000820F54000C065D000200390044
:100450000200320039008800C30088008582550000
:1004600004003D000003FD008103FD008502EA0059
:100470008B854200840F720002003B006000100078
:10048000E08018006011B8000005EB007A28E10058
:100490000A00390006008800C75DDD00F707B200DA
:1004A000878075002D003700828171002A00880046
:1004B000610560008180D1000080D3008502E900E1
:1004C000F9FF3B00060440008784480002003B001F
:1004D00060041400E0841C000988A30007003200B7
:1004E0008A81710082817100610164008904D100F8
:1004F0000884D3008B05E800170037000978A300B3
:1005000013003A001600E200130034008B05E900E6
:100510000804440089844C000A4474000978A3004C
:100520000D003A001600E200070034008B05E900D8
:100530000804440089844C0001003A000B002000AC
:100540000978A300F7FF32000001EB00020037003A
:10055000828171002A008800220007000CF0A700A9
:1005600003E0A800180037006420E10002003A0010
:10057000838F6C00180033000881BE000280BE002B
:10058000110037000084BE003C0007000083BE005D
:100590000485BE000280BE0038000700844F75004D
:1005A000000006000280BE006450E1000500360035
:1005B0006420E100020036000968A30001003A004F
:1005C0000880BE0002C0A8004F0678004F05BE009C
:1005D0004F04BE0000000600F0FF2F00F1FF2700CF
:1005E000F9FF370081002000618055000B003D00BD
:1005F0000B00200061FE2F000100E1001D0034000F
:1006000082817100610164008904D1000884D300F3
:100610000000E800FAFF3A00710020006100640069
:100620000300700002006000090032006104440011
:10063000E0844C000988A500050032008B05E80025
:100640006808E10002003A008904D1000884D30060
:10065000F20F20000258E10005003D00C75DDD00FB
:10066000F907B200898075000800880000000600C4
:100670000BF827001B00880000000500C70ADE00F9
:10068000F107B200F50FB20008003200E1CF4200DE
:100690000200320002E0A80024000500810F700073
:1006A000010032000408050044000500810F7000BD
:1006B00002003A00140005008502E9000000400035
:1006C00081C04800FCFF3B0002E0A80024000500B8
:0806D0000080FA0000000600A2
:1006D8000000FA0002000700820404000000000085
:1006E800889FBE008A9FBE008C1F780030000700DC
:1006F8003700330003866C006450E10024003200A8
:100708006420E100270032006150E100220032003D
:100718006120E100210032008B854200EB07B10027
:100728000134B800003AB8000804420089844A003D
:10073800013AB8000030B8008880400009014A003A
:100748000400330000004000818048000201490095
:100758008B05E900C909DD00830170000100320042
:1007680013002000C814DE004814DD004709DE002D
:100778001200B200C808DE000884700024000700D8
:1007880001F0A1000CF0A70003E0A8001900370051
:100798006120E1001B0032000881BE000280BE001B
:1007A800F7FF37006150E100FCFF3A001500370001
:1007B8000084BE003C0007000083BE000485BE0024
:1007C8000280BE0038000700844F75000000060054
:1007D8000280BE006450E100050036006420E1009C
:1007E800020036000968A30001003A000880BE0034
:1007F80002C0A8004F0678004F05BE004F04BE0097
:1008080000000600F0FF2F00F1FF2700F9FF370076
:1008180081002000618055000B003D000B00200086
:1008280061FE2F000100E1001D003400828171008B
:10083800610164008904D1000884D3000000E80045
:10084800FAFF3A00710020006100640003007000A4
:10085800020060000900320061044400E0844C009A
:100868000988A500050032008B05E8006808E1004A
:1008780002003A008904D1000884D300F20F200056
:100888000258E10005003D00C75DDD00F907B20030
:100898008980750008008800000006000BF8270012
:1008A8001B00880000000500C70ADE00F107B2003F
:1008B800F50FB20008003200E1CF4200020032001A
:1008C80002E0A80024000500810F7000010032003A
:1008D8000408050044000500810F700002003A007A
:1008E800140005008502E9000000400081C04800AE
:1008F800FCFF3B0002E0A800240005000080FA008D
:0409080000000600E5
:100AD4000000FA00020007009C0604000000000069
:100AE400889FBE008A9FBE008C1F78003E000700CE
:100AF4004500330003866C006450E1002E00320090
:100B04006420E100330032006150E1002F00320024
:100B14006120E1003100320085855500EB07B0000B
:100B240009002000080420000500370008044400E0
:100B340089844C000A0031000603430087834B007C
:100B44000001530081815B00F8FF33000283BE0083
:100B54001000A8000804440089844C00F6FF390002
:100B6400C639DD0083017300010032001300200048
:100B74008904D1000884D3000998A3000500320039
:100B84000800A7000600A8008904D1000884D30047
:100B94008B05E8008904D1000884D3000001EB0030
:100BA4000281D2002800070001F0A1000CF0A70088
:100BB40003E0A8001D0037006420E1001F0032009C
:100BC4000881BE000280BE00F7FF37006120E1000B
:100BD4001A0032006000B800F3FF37000000200064
:100BE40001F82700F0FF37000084BE003C00070036
:100BF4000083BE000485BE000280BE0038000700EA
:100C0400844F7500000006000280BE006450E100BD
:100C1400050036006420E100020036000968A300E4
:100C240001003A000880BE0002C0A8004F06780008
:100C34004F05BE004F04BE0000000600F0FF2F0069
:100C4400F1FF2700F9FF3700810020006180550083
:100C54000B003D000B00200061FE2F000100E100AD
:100C64001D00340082817100610164008904D10097
:100C74000884D3000000E800FAFF3A007100200065
:100C8400610064000300700002006000090032008B
:100C940061044400E0844C000988A500050032008A
:100CA4008B05E8006808E10002003A008904D100DD
:100CB4000884D300F20F20000258E10005003D0033
:100CC400C75DDD00F907B20089807500080088005F
:100CD400000006000BF827001B0088000000050038
:100CE400C70ADE00F107B200F50FB20008003200B7
:100CF400E1CF42000200320002E0A8002400050017
:100D0400810F700001003200040805004400050052
:100D1400810F700002003A00140005008502E9000A
:100D24000000400081C04800FCFF3B0002E0A80036
:0C0D3400240005000080FA00000006000A
:100E24000000FA000200070086070400000000002A
:100E34000081BE001F0007000470A70003F0A1009A
:100E44006509B100160032000D0035006828E10084
:100E540006003500F0FF2F00F1FF27000600E20036
:100E640013003B00010028000000050000004000C2
:100E7400818048008502E900FCFF3A000800370041
:100E8400F88F420002003C008000EB0000000500E7
:100E94008100D1000080D3008502E800FCFF3A0005
:100EA4000600E20002003B0060001000E080180031
:100EB40000000600C70ADE00F107B200F50FB20019
:100EC40008003200E1CF42000200320002E0A80034
:100ED40024000500810F70000100320004080500A1
:100EE40044000500810F700002003A001400050060
:100EF4008502E9000000400081C04800FCFF3B007F
:100F040002E0A800240005000080FA0000000600AA
:000F1400DD
:101358000000FA001400200077FE07000080FA0061
:04136800000006007B
:100D40000000FA00020007000E0704000000000087
:100D5000841F7800140007004F0078001100330052
:100D6000F0FF2F00838F6C0006003B000405650038
:100D70000A00A7000800370009F0A60010002000B4
:100D800008003700820F5400838F5C000300390095
:100D90001000200001003E000000200009F0A70024
:100DA0000000EA00000006000084BE000600070004
:100DB0000083BE000485BE000280BE000200070062
:100DC000844F750000000600C70ADE00F107B2007C
:100DD000F50FB20008003200E1CF420002003200FD
:100DE00002E0A80024000500810F7000010032001D
:100DF0000408050044000500810F700002003A005D
:100E0000140005008502E9000000400081C0480090
:100E1000FCFF3B0002E0A800240005000080FA006F
:040E200000000600C8
:101838008A1F78009B40780061804500104178003D
:101848006280450090417800638045001040780030
:101858006154E10024003A00CCA2A800AA032000A9
:10186800C0FE07000185FB00BEFE07000285FB00E5
:10187800BCFE07000385FB00BAFE07000085FB00DD
:10188800B8FE07000220EF0000417800020CE100DA
:10189800080031000180FB00000046008A1F780024
:1018A8001085FB00AFFE07004F0578000260EC00D2
:1018B800F6FF37008A1F7800DA002000A9FE07002B
:1018C800AA002000A7FE07001420EF00A5FE0700CD
:1018D8004F0578008DFD07006000E10001003A0027
:1018E800FCFF3700CCA2A9004F05780000000600D5
:0018F800F0
:10136C000000FA002302AF0001003700FDFF370038
:0C137C002A1188000080FA000000060022
:100F14000000FA000020EF002302AF000020EC00E4
:080F24000080FA000000060045
:101CB4003400F8003600F800801F7800200020006F
:101CC4000C000900B01F7800206F80006A00E1005A
:101CD40002003100CA42AA0008003700CA42A90023
:101CE400E106200040DE20001008E10003003A0075
:101CF40011E1A9000021EF0005E1A8001100200076
:101D040040DE20001088400084E0A900A0012000EB
:101D14000C0009004F1078004F0078003600F900DD
:081D24003400F9000040060044
:101D2C003400F8003600F800801F780020002000F6
:101D3C000C000900B01F78002023A9002003AF007D
:101D4C0001003700FDFF3700E1728000E015200034
:101D5C000008E1000A003100E0728000C100DD00E3
:101D6C0060812000810040000083BF008008780063
:101D7C0011002000C0E5200010884000040037004E
:101D8C00E1E4200010C0B3008048780005E1A90010
:101D9C008460A900A00120000C0009004F107800FD
:101DAC004F0078003600F9003400F90000400600BE
:001DBC0027
:10206C00000000000000000047E30000623A00009E
:10207C006D200000753B00002B320000103C00006E
:10208C00A9E90000813C000024870000C73C000047
:10209C0050F40000083D0000824500002C3D00007B
:1020AC00A25F0000493D0000608600005C3D00001E
:1020BC0083340000633D0000608600005C3D00003E
:1020CC00A25F0000493D0000824500002C3D00004D
:1020DC0050F40000083D000024870000C73C0000BD
:1020EC00A9E90000813C00002B320000103C0000EC
:1020FC006D200000753B000047E30000623A0000D1
:08210C000000000000000000CB
:082114000000000000000000C3
:10211C000B0B00000B0B00000B0B00000B0B00005B
:04212C000B030000A1
:0421300000000000AB
:0421340000000000A7
:0200000401F009
:200000000F000000FFFF00000700000083000000A50000005F000000F7000000C30000008B
:00000001FF
