:10000000FC110400000000000000000000000000DF
:1000100000000000000000000000000000000000E0
:1000200000000000000000000000000000000000D0
:10003000000000006E110000000000000000000041
:1000400000000000B61100000000000000000000E9
:10005000000000008E120000000000000000000000
:100060000000000000000000000000000000000090
:100070000000000000000000000000000000000080
:100080000000000000000000000000000000000070
:100090000000000000000000000000000000000060
:1023F8000FBB2000F0FF200020A0B7000000200045
:1024080034A0B700400020004420B700FC130200AD
:10241800000000008A1F78008B1F78000EFF07005D
:102428000020EF00205B88000020EF00A05B880000
:102438000020EF00904188000020EF00A0418800B4
:102448000020EF000220EF00605D8800715D8800C9
:1024580001B620000020EF00804878000020EF003F
:102468000220EF00605B8800715B88000020EF00AD
:10247800505B8800718220000020EF0080487800BF
:10248800F18220000020EF008048780001832000BE
:102498000020EF00804878000020EF00D04188003D
:1024A800C18320000020EF0080487800D1832000FD
:1024B8000020EF00804878000020EF00B04188003D
:1024C80060832000C0418800CCA2A90011B620007A
:1024D8000020EF0080487800C482A9001183200002
:1024E8000020EF008048780010B6200010407800E7
:1024F8006104E10003003A008B812000AA822000D9
:1025080040FE0700F8FF3700CF0578004F05780038
:04251800FFFF37008A
:102060008A1F78008B1F7800407420009040780011
:1020700000CEB30080C060004074200001487800AA
:102080006002200046A7B70040742000904078000E
:10209000F0C3B30080C060004074200001487800A5
:1020A000D0FF2F002CA3B700C022A80000F42F00FF
:1020B000C8A2B700C8A2A900C082A9002143A900F4
:1020C00001198000F0CF2F000080600020A3B7002E
:1020D0002063A90021A3A9002043A800003220000A
:1020E00090407800F0C1B30080C060000032200052
:1020F0000148780011198000F0FF21000080600085
:1021000022A3B70011198000F0CF2F0000806000DB
:1021100022A3B7002343A9002223A9002203A90078
:1021200025E3A90020C0B3008040780040322000A1
:1021300090C06800F0CFB30080C060004032200043
:1021400090C0680040322000014878000020200044
:1021500080007800403220009080680000F021006C
:102160008080600040322000908068002119880043
:1021700029E3A900001020008000780080322000B0
:102180009080680000F02100808060008032200094
:10219000908068004119880028E3A90010C0B300AE
:1021A000804078008032200090C06800FFC060004E
:1021B0008032200090C06800803220000148780002
:1021C0002623EF003023EF0021E3A80000002800C1
:1021D00004A1B7009460A8008460A900800C2000CE
:1021E00002A1B70005E1A9000000280010A1B70076
:1021F00094E0A80084E0A900401F20000CA1B700D3
:1022000011E1A90060C0B30080407800406A20005E
:1022100090C06800FFC06000406A200090C0680065
:10222000406A2000014878000030200080007800DB
:10223000606C20009080680000F0210080806000C9
:10224000606C200090806800313688009560A8009E
:102250008560A9000AB024000B002000F2FD0700F1
:10226000210580000000270000807000A4A0B700B6
:102270000000260080007800600A2000908068003E
:102280000000270080806000600A200090806800C5
:10229000310588000000250080007800800A2000B9
:1022A000908068000000270080806000800A200085
:1022B000908068004105880058012000B7852500FE
:1022C0000E20ED00FEFF3A001020ED00FCFF3A006A
:0C22D000CF0578004F05780000000600E4
:101A28000800FA006083200040418800A0EF2000F1
:101A380090408800F0FF2F00A040880040842000DC
:101A4800B04088002022EF000000280022A2B70042
:101A58002062A90090FD07000001BE00803E200022
:101A68000100200076FD07000001BE0046FD0700CA
:101A78004100DE00640040008000780060004700FC
:101A88000A88BE008100E900030035001018D00064
:101A98001090D200FBFF3700829FBE008A9FBE00D5
:101AA8000200BE000E0190009E0190000002EB00B3
:101AB80037FD07004F05BE004F01BE002007980004
:101AC800310798008A9FBE000200BE000E019000F8
:101AD8009E0190000002EB0077FD07004F05BE0055
:101AE8008001780001027800600047005001D100B1
:101AF800C080D300640047003008E1002090E10076
:101B08000700310061804100E0004A00800278004F
:101B1800010378000501780086017800020037008B
:101B280003017800840178000280710033003A00D4
:101B380059FD07000001BE00803E20000100200082
:101B48003FFD07000001BE000FFD07004100DE0059
:101B580000A0EC0080007800600047000A88BE0002
:101B68008100E900030035001018D0001090D20061
:101B7800FBFF3700829FBE000200BE000E019000EE
:101B88009E0190000002EB0001FD07004F01BE001E
:101B980020079800310798000200BE000E0190004F
:101BA8009E0190000002EB0043FD070080017800D1
:101BB80001027800600047005001D100C080D300C6
:101BC800640047003008E1002090E1000700310080
:101BD80061804100E0004A0080027800010378003B
:101BE80005017800860178000200370003017800BB
:101BF800840178002062A8000000370061005100CD
:101C0800E0805900401188002222A90021E2A800A2
:101C18002342A800D5FC0700D4FC07000080FA0086
:041C280000000600B2
:0C10A00000882300110020000000060062
:080F9000200020000000060013
:100F7400D8002000775023000E20ED00FEFF3A0039
:0C0F84001020ED00FCFF3A000000060009
:101048000000FA00020AB800500088000200B80048
:1010580081004200032AB800810042000080FA00A3
:04106800000006007E
:100F98000000FA000200070020080400000000001A
:100FA8000800E20002003A001000070000000600F6
:100FB800811F78000200E20002003D00600010007E
:100FC800E08018000600E20002003D006001110008
:100FD800E0811900050007004F00E00002003B0017
:100FE80060001000E0801800000006000200070002
:100FF8000480BE00000006006022B800060220003F
:101008000000D0008180D2000482D2008582D20004
:101018000000A8000202520083825A0003003B002D
:101028000202420083824A000000A1000603E90090
:10103800F3FF3A00000006000080FA0000000600F6
:00104800A8
:1010C0000000FA0002000700AE0804000000000063
:1010D0000800E20002003A001000070000000600CD
:1010E000839F68000200E20002003D0060001000E3
:1010F000E08018000600E20002003D0060011100DF
:10110000E0811900050007004F00E00002003B00ED
:1011100060001000E0801800000006006022B800A7
:10112000060220000000D0008180D2000482D2009C
:101130008582D2000000A8000202520083825A0079
:1011400003003B000202420083824A000000A1002B
:101150000603E900F3FF3A00000006000080FA00F1
:041160000000060085
:101E0C000800FA008A1F78008B1F78008C1F78005E
:101E1C0062004700800478006000470000017800F1
:101E2C006400470080017800610045009040780014
:101E3C006200450010407800780037001800370029
:101E4C0054FE0700505B8800A6FF0700605B88000B
:101E5C00715B88001B0037004EFE0700505B88004A
:101E6C00BBFE0700170037004AFE0700505B8800D6
:101E7C0039FE07001300370046FE0700505B880050
:101E8C0014FE07000F00370042FE0700505B88006D
:101E9C0094FF0700605B8800715B880009003700C5
:101EAC006104E100E6FF32006204E100EAFF320067
:101EBC006304E100ECFF32006404E100EEFF320049
:101ECC00F1FF37005B00370032003700505B8000B9
:101EDC0000079800605B8000715B80002007980011
:101EEC00310798009340780060B7200001487800D3
:101EFC00618041009040780070B720000148780064
:101F0C00628041009040780080B720000148780042
:101F1C00638041009040780090B720000148780021
:101F2C0092407800A0B72000014878006100410081
:101F3C0090407800B0B72000014878006000200085
:101F4C00100798006300450019487800E40045002C
:101F5C0061804400904878006CB720008A057800B6
:101F6C001AC0B30040FE07000E003700E02B200023
:101F7C00100798006300450019487800E4004500FC
:101F8C0061804400904878005B5B800024FF070070
:101F9C00040037006104E100CCFF32006204E10070
:101FAC00F2FF32002300370017003700A00020009A
:101FBC00100798006300450019487800E4004500BC
:101FCC0061804400904878002C8020008A057800BD
:101FDC001AC0B30024FE07000F00370000202000B9
:101FEC00100798006300450019487800E40045008C
:101FFC0061804400904878008A0578001E059000A6
:10200C0066FE0700040037006204E100E7FF3200BF
:10201C006304E100F1FF320006003700610CE100BF
:10202C0086FF3200620CE100A7FF3200640CE10075
:10203C00DDFF320011B620000020EF008048780050
:10204C004F067800CF0578004F0578000080FA0025
:04205C00000006007A
:1017A0008A1F78008B1F78008C1F7800C482A800E5
:1017B0001620EF002A2C200088FE0700CCCCB300B6
:1017C0001620EF002A2C200066FE07004CC4B30050
:1017D0001620EF002A2C200062FE07009809200046
:1017E000176B29000E20ED00FEFF3A001020ED00DF
:1017F000FCFF3A0000000000000000001620EF008F
:101800002A2C200075FE0700CCCCB3001620EF0078
:101810002A2C200053FE0700ECCBB3001620EF006B
:101820002A2C20004FFE0700575320000E20ED0009
:10183000FEFF3A00000000001620EF002A2C2000D6
:1018400089FF07008082FB001620EF002A2C200071
:1018500085FF07000080FB004800DD000500400018
:10186000C482A9004F067800CF0578004F057800A4
:04187000000006006E
:1011DC000000FA00100020000B00DD000001780078
:1011EC008080EA0081017800620045001088600070
:1011FC0062005500108861004CFD0700620055002C
:10120C00100871004FFD07001A0061006000E1003A
:10121C000060EF00010032000060EC008080FB00F9
:10122C0042FD0700010078000080FA000000060073
:00123C00B2
:1007380007FA20000E20ED00FEFF3A00000000003E
:080748000000000000000600A3
:10075000072820000E20ED00FEFF3A0000000000F8
:0807600000000000000006008B
:101164000000FA00100020000B00DD0000017800F0
:101174008080EA000620EF006718E10012003E00BC
:101184000C80FB000300DE000080FB0061026000B5
:1011940062004500108860006200550010886000FD
:1011A4000800E200020032006200550010087100DD
:1011B40066FD0700620055001008710069FD070014
:1011C4000620EC00ECFF370042FD070041FD07005C
:0811D4000080FA000000060093
:10076800870020000E20ED00FEFF3A000000000088
:08077800000000000000060073
:1006D800071920000E20ED00FEFF3A000000000080
:0806E800000000000000060004
:101668000000FA00100020000B00DD0000017800E7
:101678008080EA000820EF000620EF006718E100EC
:1016880012003E00620045001088600062005500AC
:101698001088600032FC07006200550010087100D5
:1016A8002FFC07001A00610004003200100020001F
:1016B8000300DD00000272000000370004FC070090
:1016C80003FC07000620EC00ECFF3700044078001C
:0816D8000080FA00000006008A
:101CF00051B820000020EF00804878000020EF005D
:101D00000220EF00005D8800115D88000020EF00D8
:101D10000220EF00205D8800315D88000020EF0088
:101D20000220EF00305C8800415C88000020EF005A
:101D30000220EF00805B8800915B880050B8200093
:101D4000104078007E04E100220031003BFD0700D6
:101D5000605D8000715D8000805B8800915B880021
:101D6000605D8000715D8000325C8000435C8000BB
:101D7000EEFB07000200200003042400CBFC070058
:101D80000000E0000060EF0001003C000060EC009B
:101D90000040E2000A003200025D8000135D800016
:101DA000805B8000915B800095F90700005D8800F2
:101DB000115D880011C0B30050B8200010C8400069
:101DC000805B8000915B8000305C8800415C880013
:101DD000DAFF370002002000031F2400005D8000AE
:101DE000115D800036FB0700205D8800315D8800B2
:041DF00000000600E9
:10123C000C00FA00C482A80001B620000020EF00C8
:10124C00804878000020EF00105B8800CA42A9009B
:10125C0005E1A9000621EF0011E1A8000020EF0034
:10126C00205B880000B62000104078006104E1008B
:10127C0001003200FBFF370000B620001040780060
:10128C006104E10066003A00C01F200000408800A5
:10129C000020EF00305B8800315B8000E0152000FF
:1012AC000008E1005B003100305B8000C100DD0014
:1012BC00008420008101400013017800018020008F
:1012CC00E0B5200011085100930078000080200048
:1012DC001008E1000B003100305B8000C100DD0024
:1012EC00008420008100400000408000110050006C
:1012FC004100DD001101400001802000E0B520001C
:10130C001108510040012000E0578800E057800090
:10131C006000E1000F003200E0578000C200DD00E9
:10132C00E0AF200001014000E05780000020ED00FC
:10133C00C200DD00E0AF2000010040003019780051
:10134C002011780011002000C0AF20001088100080
:10135C00EEFF3700F05A80008000EB0005FD07001F
:10136C00F0578800015888000020EF000220EF00A1
:10137C0060408800714088000020EF00E057880032
:10138C00E05780007500E10015003100E057800047
:10139C004201DD006039290082004000B101780073
:1013AC0021027800E0AF2000020140001200BE00D4
:1013BC0003017800840178005EFE07006240800023
:1013CC00734080000BFC070060408800714088006F
:1013DC0011002000C0AF200010884000E8FF37004B
:1013EC0060408000714080003DFD07008040880017
:1013FC00315B80004109DD000184200082804000C7
:10140C00800878001100200060B620001088400091
:10141C00A1FF370001B6200020C0B300804878003F
:10142C0000B62000104078006204E10088003A0009
:10143C0080B52000801F7800E0152000801F780008
:10144C0000842000801F7800A6FC07006F00B1000C
:10145C00F0418800C05A8000D05A88000020EF006C
:10146C00E05A8800E05A8000C100DD0000842000B2
:10147C000100400090007800E08320001008E1009B
:10148C000400310011002000C0B52000108840007D
:10149C00F4FF3700D15A8000C0B5200010805000F6
:1014AC00C100DE00C0B5200090804000915A880039
:1014BC0074805000A05A8800F4814000B35A880010
:1014CC00C100DD0000842000010040001001780004
:1014DC00425B8800C118DD00008420000100400040
:1014EC001000780000079800B05C880002007800BB
:1014FC00CF80DE000081EB009EFC070040079800C7
:10150C0051079800C05C8800D15C8800F0418000D5
:10151C00CF80DE000081EB0096FC070020079800CE
:10152C0031079800E05C8800F15C88000E009000A8
:10153C00CF80DE000081EB008EFC070000079800D6
:10154C0011079800809FBE000E0090009E00900036
:10155C00505C8800615C88004F00BE004E0090001B
:10156C00DE009000829FBE000E0190009E01900054
:10157C00EBFD07004F01BE002E019000BE01900054
:10158C00200798003107980000002000010024007B
:10159C00E8FD07000007980011079800C05C800068
:1015AC00D15C8000829FBE000E0190009E019000D5
:1015BC00DBFD07004F01BE00525C8000635C8000C5
:1015CC008CFB07000200200003002400D9FD07005B
:1015DC0000079800110798002E009000BE009000A4
:1015EC00829FBE000E0190009E01900031FD07000D
:1015FC004F01BE00705C8800815C880002002000F6
:10160C00031A2400CBFD070002002000030A24006B
:10161C00C8FD0700905C8800A15C8800905A80008F
:10162C008000EB0053FC070002002000030A24009A
:10163C00C0FD0700405D8800515D8800925C800011
:10164C00A35C80006BFB0700605D8800715D880007
:0C165C00C482A9000080FA000000060013
:1006F0000000FA002EB997003EB89700CEB89700D8
:10070000B10278000009EB000002E90007003400A4
:10071000B10178000328E10002003C00530088008A
:10072000040950000402E900F9FF3C0005008800BC
:080730000080FA000000060041
:100780000000FA00020007007204040000000000EC
:100790000400E20006003A000005EB000200E2005F
:1007A0000F003E000000E200270032000C0037007E
:1007B000A10088000200E2000400350008003C00AF
:1007C0000000E20020003200050037006000100049
:1007D000E080180002003B0001F02C001A003700F6
:1007E0000084BE006011B8006B0920000982CF00B0
:1007F000020039000882CF000441B0006942520073
:100800000E00320008003B0082817100610164002B
:100810008904D1000884D3008B05E8000442E80075
:10082000F9FF3A00050037000804440089844C00B1
:100830008B05E9000442E900FBFF3A0003000700D2
:100840000AF0A70003E0A8000000060081002000D5
:10085000618055000B003D000B00200061FE2F0061
:100860000100E1001D00340082817100610164001B
:100870008904D1000884D3000000E800FAFF3A00A0
:10088000710020006100640003007000020060003D
:100890000900320061044400E0844C000988A5008E
:1008A000050032008B05E8006808E10002003A000C
:1008B0008904D1000884D300F20F20000258E1001F
:1008C00005003D00C75DDD00F907B20089807500B5
:1008D00008008800000006000BF827001B008800B5
:0C08E000000005000080FA000000060087
:100D2C000000FA0007E0AA00B2FD07000080FA00FC
:040D3C0000000600AD
:100400000000FA000200070068030400000000007A
:10041000889FBE008A9FBE008C1F7800590007008D
:10042000600033006450E1004F0032006420E100BE
:100430005200320003826C0007003B000905D00027
:100440000306D000820F54000C065D000200390044
:100450000200320039008800C30088008582550000
:1004600004003D000003FD008103FD008502EA0059
:100470008B854200840F720002003B006000100078
:10048000E08018006011B8000005EB007A28E10058
:100490000A00390006008800C75DDD00F707B200DA
:1004A000878075002D003700828171002A00880046
:1004B000610560008180D1000080D3008502E900E1
:1004C000F9FF3B00060440008784480002003B001F
:1004D00060041400E0841C000988A30007003200B7
:1004E0008A81710082817100610164008904D100F8
:1004F0000884D3008B05E800170037000978A300B3
:1005000013003A001600E200130034008B05E900E6
:100510000804440089844C000A4474000978A3004C
:100520000D003A001600E200070034008B05E900D8
:100530000804440089844C0001003A000B002000AC
:100540000978A300F7FF32000001EB00020037003A
:10055000828171002A008800220007000CF0A700A9
:1005600003E0A800180037006420E10002003A0010
:10057000838F6C00180033000881BE000280BE002B
:10058000110037000084BE003C0007000083BE005D
:100590000485BE000280BE0038000700844F75004D
:1005A000000006000280BE006450E1000500360035
:1005B0006420E100020036000968A30001003A004F
:1005C0000880BE0002C0A8004F0678004F05BE009C
:1005D0004F04BE0000000600F0FF2F00F1FF2700CF
:1005E000F9FF370081002000618055000B003D00BD
:1005F0000B00200061FE2F000100E1001D0034000F
:1006000082817100610164008904D1000884D300F3
:100610000000E800FAFF3A00710020006100640069
:100620000300700002006000090032006104440011
:10063000E0844C000988A500050032008B05E80025
:100640006808E10002003A008904D1000884D30060
:10065000F20F20000258E10005003D00C75DDD00FB
:10066000F907B200898075000800880000000600C4
:100670000BF827001B00880000000500C70ADE00F9
:10068000F107B200F50FB20008003200E1CF4200DE
:100690000200320002E0A80024000500810F700073
:1006A000010032000408050044000500810F7000BD
:1006B00002003A00140005008502E9000000400035
:1006C00081C04800FCFF3B0002E0A80024000500B8
:0806D0000080FA0000000600A2
:100D40000000FA0002000700B607040000000000DF
:100D5000889FBE008A9FBE008C1F7800300007006D
:100D60003700330003866C006450E1002400320039
:100D70006420E100270032006150E10022003200CF
:100D80006120E100210032008B854200EB07B100B9
:100D90000134B800003AB8000804420089844A00CF
:100DA000013AB8000030B8008880400009014A00CC
:100DB0000400330000004000818048000201490027
:100DC0008B05E900C909DD008301700001003200D4
:100DD00013002000C814DE004814DD004709DE00BF
:100DE0001200B200C808DE0008847000240007006A
:100DF00001F0A1000CF0A70003E0A80019003700E3
:100E00006120E1001B0032000881BE000280BE00AC
:100E1000F7FF37006150E100FCFF3A001500370092
:100E20000084BE003C0007000083BE000485BE00B5
:100E30000280BE0038000700844F750000000600E5
:100E40000280BE006450E100050036006420E1002D
:100E5000020036000968A30001003A000880BE00C5
:100E600002C0A8004F0678004F05BE004F04BE0028
:100E700000000600F0FF2F00F1FF2700F9FF370008
:100E800081002000618055000B003D000B00200018
:100E900061FE2F000100E1001D003400828171001D
:100EA000610164008904D1000884D3000000E800D7
:100EB000FAFF3A0071002000610064000300700036
:100EC000020060000900320061044400E0844C002C
:100ED0000988A500050032008B05E8006808E100DC
:100EE00002003A008904D1000884D300F20F2000E8
:100EF0000258E10005003D00C75DDD00F907B200C2
:100F00008980750008008800000006000BF82700A3
:100F10001B00880000000500C70ADE00F107B200D0
:100F2000F50FB20008003200E1CF420002003200AB
:100F300002E0A80024000500810F700001003200CB
:100F40000408050044000500810F700002003A000B
:100F5000140005008502E9000000400081C048003F
:100F6000FCFF3B0002E0A800240005000080FA001E
:040F70000000060077
:100AC0000000FA0002000700920604000000000087
:100AD000889FBE008A9FBE008C1F78003E000700E2
:100AE0004500330003866C006450E1002E003200A4
:100AF0006420E100330032006150E1002F00320039
:100B00006120E1003100320085855500EB07B0001F
:100B100009002000080420000500370008044400F4
:100B200089844C000A0031000603430087834B0090
:100B30000001530081815B00F8FF33000283BE0097
:100B40001000A8000804440089844C00F6FF390016
:100B5000C639DD008301730001003200130020005C
:100B60008904D1000884D3000998A300050032004D
:100B70000800A7000600A8008904D1000884D3005B
:100B80008B05E8008904D1000884D3000001EB0044
:100B90000281D2002800070001F0A1000CF0A7009C
:100BA00003E0A8001D0037006420E1001F003200B0
:100BB0000881BE000280BE00F7FF37006120E1001F
:100BC0001A0032006000B800F3FF37000000200078
:100BD00001F82700F0FF37000084BE003C0007004A
:100BE0000083BE000485BE000280BE0038000700FE
:100BF000844F7500000006000280BE006450E100D2
:100C0000050036006420E100020036000968A300F8
:100C100001003A000880BE0002C0A8004F0678001C
:100C20004F05BE004F04BE0000000600F0FF2F007D
:100C3000F1FF2700F9FF3700810020006180550097
:100C40000B003D000B00200061FE2F000100E100C1
:100C50001D00340082817100610164008904D100AB
:100C60000884D3000000E800FAFF3A007100200079
:100C7000610064000300700002006000090032009F
:100C800061044400E0844C000988A500050032009E
:100C90008B05E8006808E10002003A008904D100F1
:100CA0000884D300F20F20000258E10005003D0047
:100CB000C75DDD00F907B200898075000800880073
:100CC000000006000BF827001B008800000005004C
:100CD000C70ADE00F107B200F50FB20008003200CB
:100CE000E1CF42000200320002E0A800240005002B
:100CF000810F700001003200040805004400050067
:100D0000810F700002003A00140005008502E9001E
:100D10000000400081C04800FCFF3B0002E0A8004A
:0C0D2000240005000080FA00000006001E
:1008EC000000FA0002000700EA0404000000000007
:1008FC000081BE001F0007000470A70003F0A100D8
:10090C006509B100160032000D0035006828E100C1
:10091C0006003500F0FF2F00F1FF27000600E20073
:10092C0013003B00010028000000050000004000FF
:10093C00818048008502E900FCFF3A00080037007E
:10094C00F88F420002003C008000EB000000050024
:10095C008100D1000080D3008502E800FCFF3A0042
:10096C000600E20002003B0060001000E08018006E
:10097C0000000600C70ADE00F107B200F50FB20056
:10098C0008003200E1CF42000200320002E0A80071
:10099C0024000500810F70000100320004080500DE
:1009AC0044000500810F700002003A00140005009D
:1009BC008502E9000000400081C04800FCFF3B00BC
:1009CC0002E0A800240005000080FA0000000600E8
:0009DC001B
:1010AC000000FA001400200049FE07000080FA003E
:0410BC00000006002A
:1009DC000000FA00020007005C05040000000000A3
:1009EC00841F7800140007004F00780011003300BA
:1009FC00F0FF2F00838F6C0006003B0004056500A0
:100A0C000A00A7000800370009F0A600100020001B
:100A1C0008003700820F5400838F5C0003003900FC
:100A2C001000200001003E000000200009F0A7008B
:100A3C000000EA00000006000084BE00060007006B
:100A4C000083BE000485BE000280BE0002000700C9
:100A5C00844F750000000600C70ADE00F107B200E3
:100A6C00F50FB20008003200E1CF42000200320064
:100A7C0002E0A80024000500810F70000100320084
:100A8C000408050044000500810F700002003A00C4
:100A9C00140005008502E9000000400081C04800F8
:100AAC00FCFF3B0002E0A800240005000080FA00D7
:040ABC000000060030
:10195C00C482A80001B620000020EF008048780067
:10196C000020EF00105B8800CA42A90005E1A90025
:10197C000621EF0011E1A8000020EF00205B880099
:10198C0000B62000104078006104E1000100320034
:0C199C00FBFF3700C482A9000000060019
:10176400C482A8000021EF0005E1A80001B6200012
:101774000020EF00804878000020EF00205B880004
:1017840000B62000104078006104E100010032003E
:0C179400FBFF3700C482A9000000060023
:1016E000C482A8000020EF00205B8800215B8000FE
:1016F000E01520000008E1000A003100A05B800036
:10170000C100DD000084200081004000401F200057
:10171000800878001100200040B6200010884000AA
:10172000F2FF3700C482A90098022000770B2B003B
:101730000E20ED00FEFF3A001020ED00FCFF3A0005
:10174000C482A80098022000770B2B000E20ED0029
:10175000FEFF3A001020ED00FCFF3A00C482A90011
:04176000000006007F
:101874000200FA008A1F78006001470082017800A4
:101884001B427800618045009042780062804500E8
:1018940010437800E380450091437800648045005C
:1018A40010447800114978006180410008487800AC
:1018B4006154E10025003A00CCA2A800AA0320004C
:1018C400E9FD07000485FB00E7FD07000585FB0033
:1018D400E5FD07000685FB00E3FD07000785FB0027
:1018E400E1FD07000885FB00DFFD07000220EF0093
:1018F400600047001008E1000700310001004600C5
:101904008A1F78001085FB00D7FD07004F0578007B
:101914000220EC00F6FF37008A1F7800DA0020006E
:10192400D1FD0700AA002000CFFD07001420EF001E
:10193400CDFD07004F057800D2FD07006000E100EF
:1019440001003A00FCFF3700CCA2A9004F05780043
:081954000080FA00000006000B
:10106C000000FA002302AF0001003700FDFF37003B
:0C107C002A1188000080FA000000060025
:101088000000FA000020EF002302AF000020EC006F
:081098000080FA0000000600D0
:101C2C00C402FA008C1F7800202C20000000470012
:101C3C000002780060012000800178000020EF0095
:101C4C00A05B8800A15B8000E01520000008E1008B
:101C5C0013003100A05B80004101DD0000842000F6
:101C6C00020040001000780010A79A00E000470026
:101C7C000280400014487800A05B80004100DD0029
:101C8C000020EC0080804000610042009048780009
:101C9C001100200040B7200010884000E9FF3700F9
:101CAC0060014700C02B2000000041001348780061
:101CBC00D02B2000800041006180410090487800CA
:101CCC008A9FBE00020678008A0578001AC0B3000D
:101CDC00E5FE07004F05BE004F0678000080FA00B5
:041CEC0000000600EE
:1019A8000402FA008C1F78000420EF000020EF00EA
:1019B800A05B880040B720001050E1000F003600FF
:1019C800E000470040B7200010804000024878003F
:1019D800E100410001017800F00F20000008E1005B
:1019E800020036000420EF0000003700110020003C
:1019F80040B7200010884000EEFF37006000470025
:101A08008A1F7800000678001AC0B30097FF070005
:101A18004F0578004F0678000080FA0000000600A5
:001A2800BE
:1027F80001802000A03E290008000900B0187800D8
:0428080000000600C6
:10251C003400F8003600F800801F780020002000FE
:10252C000C000900B01F78008560A9002EFE070082
:10253C0001832000804878007082200010407800D1
:10254C006204E10013003A00D14180006083200056
:10255C001008E1000900310081812000A0832000D7
:10256C0090804000008320009048780011002000EB
:10257C00A0832000108840000600370071822000E4
:10258C000020EF0080487800F182200010C0B300DA
:10259C008048780070822000104078006004E100D0
:1025AC000E003A00F0822000104078006004E10038
:1025BC000A003A000083200090407800A0C3B300CA
:1025CC00000CE10005003A007182200010C0B3003D
:1025DC00804878000020EF00D041880070822000F5
:1025EC00104078006104E10010003A0000832000E4
:1025FC0090407800A0C3B300000CE1000B00320047
:10260C00D04180006500E10008003100A18220006B
:10261C00A083200090804000008320009048780028
:10262C0011002000A0832000108840007082200040
:10263C00104078006104E10022003A00D041800093
:10264C006500E1001F003A00A082200010407800D5
:10265C006304E10006003200A08220009040780064
:10266C00F0CFB300000CE100010032000D00370088
:10267C00D1822000C041800011487800C041800008
:10268C00E1004000E0822000904878000020EF003C
:10269C00D04188007182200020C0B30080487800AF
:1026AC0008003700718220000020EF00804878007D
:1026BC00F18220000020EF00804878000020EF001D
:1026CC00D0418800F0822000104078006104E100C5
:1026DC000C003A0058012000B78525000E20ED00B3
:1026EC00FEFF3A001020ED00FCFF3A0011B620006E
:1026FC0010C0B30080487800F18220000020EF0069
:10270C0080487800A00120000C0009004F107800D0
:10271C004F0078003600F9003400F9000040060044
:00272C00AD
:101DF4000000FA0000000000000000002682BF007E
:081E04000080FA000000060056
:10236C003400F8003600F800801F780020002000B0
:10237C000C000900B01F7800105B80006A00E100BF
:10238C0002003100CA42AA000D003700CA42A9005F
:10239C00E106200020B620001008E10008003A00F9
:1023AC0011E1A9000021EF0005E1A80001B6200011
:1023BC000020EF00804878000020EF00205B8800B0
:1023CC001100200020B620001088400084E0A900F5
:1023DC00A00120000C0009004F1078004F0078007D
:0C23EC003600F9003400F9000040060043
:1022DC003400F8003600F800801F78002000200041
:1022EC000C000900B01F78002023A9002003AF00C8
:1022FC0001003700FDFF3700215B8000E015200056
:10230C000008E1000A003100205B8000C100DD0004
:10231C0000842000810040000083BF00800878000A
:10232C001100200040B62000108840000400370047
:10233C0001B6200010C0B3008048780005E1A90068
:10234C008460A900A00120000C0009004F10780047
:10235C004F0078003600F9003400F9000040060008
:00236C0071
:10272C00000000000000000047E30000623A0000D7
:10273C006D200000753B00002B320000103C0000A7
:10274C00A9E90000813C000024870000C73C000080
:10275C0050F40000083D0000824500002C3D0000B4
:10276C00A25F0000493D0000608600005C3D000057
:10277C0083340000633D0000608600005C3D000077
:10278C00A25F0000493D0000824500002C3D000086
:10279C0050F40000083D000024870000C73C0000F6
:1027AC00A9E90000813C00002B320000103C000025
:1027BC006D200000753B000047E30000623A00000A
:0827CC00000000000000000005
:0427D4000000000001
:1027D8000B0B00000B0B00000B0B00000B0B000099
:0427E8000B030000DF
:0827EC000000000000000000E5
:0427F40000000000E1
:0200000401F009
:200000000F000000FFFF00000700000083000000A50000005F000000F7000000C30000008B
:00000001FF
