:100000005417040000000000000000000000000081
:1000100000000000000000000000000000000000E0
:1000200000000000000000000000000000000000D0
:1000300000000000081600000000000000000000A2
:1000400000000000CC1500000000000000000000CF
:10005000000000005016000000000000000000003A
:100060000000000000000000000000000000000090
:100070000000000000000000000000000000000080
:100080000000000000000000000000000000000070
:100090000000000000000000000000000000000060
:102EA8000FBE2000F0FF200020A0B7000000200087
:102EB80034A0B700400020004420B70032180200B8
:102EC800000000008DFE07000020EF00705E880003
:102ED8000020EF00805E88000020EF00905E8800F0
:102EE8000020EF00C05E88000020EF00D05E880060
:102EF8000020EF000220EF00E05E8800F15E88000D
:102F080071BD20000020EF008048780041BD2000FE
:102F18000020EF008048780051BD20000020EF001D
:102F28008048780061BD20000020EF0080487800CC
:102F38000020EF00205E8800CCA2A900C482A9006E
:102F480000002000613E2400E05D8800F15D8800FB
:102F58000020EF00005E880030112000105E88001D
:102F6800B1BB20000020EF0080487800FFFF370049
:002F780059
:102904008A1F78008B1F7800407420009040780064
:1029140000CEB30080C060004074200001487800FD
:102924006002200046A7B700407420009040780061
:10293400F0C3B30080C060004074200001487800F8
:10294400D0FF2F002CA3B700C022A80000F42F0052
:10295400C8A2B700C8A2A900C082A9002143A90047
:1029640001198000F0CF2F000080600020A3B70081
:102974002063A90021A3A9002043A800003220005D
:1029840090407800F0C1B30080C0600000322000A5
:102994000148780011198000F0FF210000806000D8
:1029A40022A3B70011198000F0CF2F00008060002F
:1029B40022A3B7002343A9002223A9002203A900CC
:1029C40025E3A90020C0B3008040780040322000F5
:1029D40090C06800F0CFB30080C060004032200097
:1029E40090C0680040322000014878000020200098
:1029F40080007800403220009080680000F02100C0
:102A04008080600040322000908068002119880096
:102A140029E3A90000102000800078008032200003
:102A24009080680000F021008080600080322000E7
:102A3400908068004119880028E3A90010C0B30001
:102A4400804078008032200090C06800FFC06000A1
:102A54008032200090C06800803220000148780055
:102A64002623EF003023EF0021E3A8000000280014
:102A740004A1B7009460A8008460A900800C200021
:102A840002A1B70005E1A9000000280010A1B700C9
:102A940094E0A80084E0A900401F20000CA1B70026
:102AA40011E1A90060C0B30080407800406A2000B2
:102AB40090C06800FFC06000406A200090C06800B9
:102AC400406A20000148780000302000800078002F
:102AD400606C20009080680000F02100808060001D
:102AE400606C200090806800313688009560A800F2
:102AF4008560A9000AB024000B0020003EFE0700F8
:102B04000000260080007800400A200090806800C1
:102B14000000270080806000400A20009080680048
:102B24002105880031058000000027000080700026
:102B3400A6A0B7000000250080007800800A2000CD
:102B4400908068000000270080806000800A2000D8
:102B5400908068004105880058012000B785250051
:102B64000E20ED00FEFF3A001020ED00FCFF3A00BD
:0C2B7400CF0578004F0578000000060037
:1023FC000800FA00A0E52000505E8800005C210077
:10240C00605E8800F0FF2F00405E8800E0E4200052
:10241C00305E88002022EF000000280022A2B700C6
:10242C002062A90015FE07000001BE00803E2000BE
:10243C00010020006AFF07000001BE0012FE070029
:10244C004100DE006400400080007800600047001E
:10245C000A88BE008100E900030035001018D00086
:10246C001090D200FBFF3700829FBE008A9FBE00F7
:10247C000200BE000E0190009E0190000002EB00D5
:10248C0060FF07004F05BE004F01BE0020079800FB
:10249C00310798008A9FBE000200BE000E0190001A
:1024AC009E0190000002EB0024FF07004F05BE00C8
:1024BC008001780001027800600047005001D100D3
:1024CC00C080D300640047003008E1002090E10098
:1024DC000700310061804100E0004A008002780072
:1024EC0001037800050178008601780002003700AE
:1024FC0003017800840178000280710033003A00F7
:10250C00DEFD07000001BE00803E2000010020001F
:10251C0033FF07000001BE00DBFD07004100DE00B9
:10252C0000A0EC0080007800600047000A88BE0024
:10253C008100E900030035001018D0001090D20083
:10254C00FBFF3700829FBE000200BE000E01900010
:10255C009E0190000002EB002AFF07004F01BE0015
:10256C0020079800310798000200BE000E01900071
:10257C009E0190000002EB00F0FE07008001780045
:10258C0001027800600047005001D100C080D300E8
:10259C00640047003008E1002090E10007003100A2
:1025AC0061804100E0004A0080027800010378005D
:1025BC0005017800860178000200370003017800DD
:1025CC00840178002062A8000000370061005100EF
:1025DC00E0805900401188002222A90021E2A800C5
:1025EC002342A80050FE07004FFE07000080FA00AF
:0425FC0000000600D5
:0C1C88000088230011002000000006006E
:081C9400200020000000060002
:101F3400D8002000775023000E20ED00FEFF3A0069
:0C1F44001020ED00FCFF3A000000060039
:1021EC000000FA00020AB800500088000200B80093
:1021FC0081004200032AB800810042000080FA00EE
:04220C0000000600C8
:102210000000FA00020007005C110400000000004A
:102220000800E20002003A0010000700000006006B
:10223000811F78000200E20002003D0060001000F3
:10224000E08018000600E20002003D00600111007D
:10225000E0811900050007004F00E00002003B008C
:1022600060001000E0801800000006000200070077
:102270000480BE00000006006022B80006022000B4
:102280000000D0008180D2000482D2008582D2007A
:102290000000A8000202520083825A0003003B00A3
:1022A0000202420083824A000000A1000603E90006
:1022B000F3FF3A00000006000080FA00000006006C
:0022C0001E
:102148000000FA0002000700F2100400000000007E
:102158000800E20002003A00100007000000060034
:10216800839F68000200E20002003D00600010004A
:10217800E08018000600E20002003D006001110046
:10218800E0811900050007004F00E00002003B0055
:1021980060001000E0801800000006006022B8000F
:1021A800060220000000D0008180D2000482D20004
:1021B8008582D2000000A8000202520083825A00E1
:1021C80003003B000202420083824A000000A10093
:1021D8000603E900F3FF3A00000006000080FA0059
:0421E80000000600ED
:10306400018020000081290007000900B0187800C1
:10307400B05878002181200020822900070009002F
:08308400B018780000000600FE
:102CA0003400F8003600F800801F78002000200073
:102CB0000C000900B01F78008A1F78008B1F780075
:102CC0008560A900AEFF070061BD20008048780044
:102CD00040BD2000104078006204E10014003A007A
:102CE000B0B920009080FB0040BC20001008E1003B
:102CF00009003600D1B9200040BC2000908040007F
:102D000060BD2000904878001100200040BC2000E9
:102D1000108840000600370041BD20000020EF0071
:102D20008048780051BD200010C0B3008048780072
:102D300040BD2000104078006004E1000E003A0021
:102D400050BD2000104078006004E1000A003A0005
:102D500060BD200090407800A0C3B300000CE100EB
:102D600005003A0041BD200010C0B3008048780043
:102D70000020EF00205E880040BD20001040780059
:102D80006104E10010003A0060BD2000904078002E
:102D9000A0C3B300000CE1000B003200205E8000F5
:102DA0006400E1000800310081B9200040BC20002F
:102DB0009080400060BD2000904878001100200005
:102DC00040BC20001088400040BD2000104078002A
:102DD0006104E1001B003A00205E80006400E10015
:102DE00018003A0080B92000104078006304E10028
:102DF0000600320080B9200090407800F0CFB30088
:102E0000000CE10001003200060037000020EF0056
:102E1000205E880041BD200020C0B30080487800BB
:102E20000800370041BD20000020EF0080487800F6
:102E300051BD20000020EF00804878000020EF0006
:102E4000205E880050BD2000104078006104E10041
:102E50000C003A0058012000B78525000E20ED0037
:102E6000FEFF3A001020ED00FCFF3A00DBB9200025
:102E70008AB9200017FE070051BD20000020EF0096
:102E800080487800CF0578004F057800A001200029
:102E90000C0009004F1078004F0078003600F90050
:082EA0003400F90000400600B7
:102B80000000FA0000000000000000002682BF00E4
:082B90000080FA0000000600BD
:1026D4000600FA008A1F78008B1F78008C1F780090
:1026E40060004700000378006200470000017800A2
:1026F4006100450090407800620045001040780079
:10270400720037001DFF0700780037005C003700B7
:10271400D05E80000007980096407800C0BA200080
:10272400014878006100430090407800D0BA20004E
:1027340001487800E300450020C0B30080487800D9
:10274400CCBA20008A0578001AC0B300DBFE07006B
:1027540055003700A9FF070000079800964078004D
:10276400C0BA20000148780061004300904078001E
:10277400D0BA200001487800E300450020C0B3002F
:1027840080487800CCBA20008A0578001AC0B300CB
:10279400CAFE070044003700105E8000000798005E
:1027A40096407800C0BA20000148780061004300D8
:1027B40090407800D0BA200001487800E30045003A
:1027C40020C0B30080487800CCBA20008A05780085
:1027D4001AC0B300B9FE070033003700821F780027
:1027E4008A1F780085FA07004F0578004F017800AA
:1027F400100798002107980092407800C0BA200082
:10280400014878006100410090407800D0BA20006F
:10281400014878006200410090407800E0BA20004E
:10282400014878006300410090407800F0BA20002D
:1028340001487800E300450040C0B30080487800B8
:10284400CCBA20008A0578001AC0B3009BFE0700AA
:1028540015003700C1BA200000BC20009048780061
:10286400E300450010C0B30080487800CCBA2000D3
:102874008A0578001AC0B30090FE07000A003700EA
:102884006104E100A2FF32006204E100B1FF320002
:102894006304E100C0FF32006404E100CFFF3200B2
:1028A4006504E100EBFF320010003700E30045004F
:1028B400A0C0B300804878004C8020008A057800CE
:1028C4001AC0B3007DFE070008003700610CE10068
:1028D4008CFF3200620CE1008CFF3200630CE100DB
:1028E400F1FF3200640CE100F0FF32004F06780083
:1028F400CF0578004F0578000080FA00000006003C
:00290400D3
:102380000200FA008A1F7800018120000020EF007F
:102390008048780000812000104078006A04E10045
:1023A0000D003100008120001080FB00C100DD0025
:1023B000C0B720000100400000079800E4FE0700BD
:1023C0008E0090008008780011C0B30000812000CA
:1023D00010C84000EFFF3700CAB720003CFE0700DE
:1023E000D05E880002BC2000A1BD20009208400001
:0C23F0004F0578000080FA000000060095
:101F50008A1F78008B1F78008C1F78001181200069
:101F60000020EF00804878000020EF000220EF0002
:101F7000805C8800915C88000020EF000220EF0068
:101F8000A05C8800B15C88000020EF000220EF0018
:101F9000805B8800915B88000020EF000220EF004A
:101FA000A05B8800B15B88001081200010407800A1
:101FB0006304E10022003D0028FE0700E05E80008F
:101FC000F15E8000A05B8800B15B8800E05E80006D
:101FD000F15E8000825B8000935B80003CFD070027
:101FE000020020000304240056F907000000E0006E
:101FF0000060EF0001003C000060EC000040E200E7
:102000000A003200825C8000935C8000A05B80004C
:10201000B15B8000B5F90700805C8800915C8800A6
:1020200011C0B3001081200010C84000A05B8000E8
:10203000B15B8000805B8800915B8800DAFF37002D
:102040000200200003042400805C8000915C80007A
:1020500090FA0700A05C8800B15C8800EEFD0700E4
:10206000C05B8800D15B880002002E00B34A2400C8
:10207000A05C8000B15C80009CF90700E25D8000FC
:10208000F35D800012FD0700024022004397240008
:1020900080FA0700605B8800715B8800C25B80008B
:1020A000D35B800016FB0700020020000300240021
:1020B00078FA070002002000A347240010FB070065
:1020C000105B8800215B8800ACB620000005BE00D4
:1020D00004FD0700305B8800415B8800020020009F
:1020E00003F0230041FC07000000E0000060EF0067
:1020F000010035000060EC000040E2000600320004
:102100001A5B80002B5B80008DFD0700105B880050
:10211000215B8800050037001A5B80002B5B800084
:1021200050FD0700105B8800215B8800105B800079
:10213000215B80007FFB07004F067800CF05780009
:082140004F05780000000600C5
:10185C000C00FA00C482A80071BD20000020EF002B
:10186C00804878000020EF0020588800CA42A90068
:10187C0005E1A9000621EF0011E1A8000020EF000E
:10188C00705E880070BD2000104078006104E1009B
:10189C0001003200FBFF370070BD200010407800C3
:1018AC006104E10066003A00C01F2000C0408800BF
:1018BC000020EF003042880031428000E01520000B
:1018CC000008E1005B00310030428000C100DD0007
:1018DC008084200081014000130178008181200068
:1018EC002081200011085100930078008081200095
:1018FC001008E1000B00310030428000C100DD0017
:10190C008084200081004000C04080001100500005
:10191C004100DD0011014000818120002081200068
:10192C001108510040012000605888006058800068
:10193C006000E1000F00320060588000C200DD0042
:10194C00E0B0200001014000605880000020ED0054
:10195C00C200DD00E0B0200001004000301978002A
:10196C002011780011002000C0B020001088100059
:10197C00EEFF3700904080008000EB0076FE070001
:10198C0070588800815888000020EF000220EF007A
:10199C00E0408800F14088000020EF00605888008B
:1019AC00605880007500E10015003100605880001F
:1019BC004201DD00C07B290082004000B1017800AB
:1019CC0021027800E0B02000020140001200BE00AD
:1019DC000301780084017800C6FC0700E240800017
:1019EC00F34080003EFB0700E0408800F140880097
:1019FC0011002000C0B0200010884000E8FF370024
:101A0C00E0408000F140800047FD07000041880065
:101A1C00314280004109DD00818420008280400039
:101A2C00800878001100200060842000108840009D
:101A3C00A1FF370071BD200020C0B30080487800A2
:101A4C0070BD2000104078006204E10088003A006C
:101A5C0080B02000801F7800E0152000801F7800E7
:101A6C0080842000801F780029FE07006F00B100E1
:101A7C003058880040588000505888000020EF00F3
:101A8C006041880060418000C100DD00808420003E
:101A9C00010040009000780060B020001008E100C8
:101AAC000400310011002000C0822000108840008A
:101ABC00F4FF370051588000C08220001080500085
:101ACC00C100DE00C082200090804000714188007F
:101ADC007480500080418800F4814000534188009C
:101AEC00C100DD008084200001004000100178005E
:101AFC0012418800C118DD008084200001004000E4
:101B0C00100078000007980020418800020078003F
:101B1C00CF80DE000081EB000FFE0700400798002D
:101B2C0051079800304188004141880030588000AE
:101B3C00CF80DE000081EB0007FE07002007980035
:101B4C0031079800D0418800E14188000E009000D8
:101B5C00CF80DE000081EB00FFFD0700000798003E
:101B6C0011079800809FBE000E0090009E00900010
:101B7C00F0418800014288004F00BE004E009000EA
:101B8C00DE009000829FBE000E0190009E0190002E
:101B9C004CFE07004F01BE002E019000BE019000CC
:101BAC002007980031079800000020000100240055
:101BBC0050FC070000079800110798003041800086
:101BCC0041418000829FBE000E0190009E0190005A
:101BDC003CFE07004F01BE00F24180000342800032
:101BEC00BFFA0700020020000300240041FC07009C
:101BFC0000079800110798002E009000BE0090007E
:101C0C00829FBE000E0190009E0190009EFB07007B
:101C1C004F01BE00104288002142880002002000C3
:101C2C00031A240033FC070002002000030A2400DE
:101C3C0030FC0700B0418800C14188007041800031
:101C4C008000EB00C4FD070002002000030A240002
:101C5C0028FC070090418800A1418800B241800017
:101C6C00C34180009EFA0700E05E8800F15E8800A8
:0C1C7C00C482A9000080FA0000000600ED
:10131C000000FA002EB997003EB89700CEB897009F
:10132C00B10278000009EB000002E900070034006C
:10133C00B10178000328E10002003C005300880052
:10134C00040950000402E900F9FF3C000500880084
:08135C000080FA000000060009
:101364000000FA0002000700640A04000000000004
:101374000400E20006003A000005EB000200E2006F
:101384000F003E000000E200270032000C0037008E
:10139400A10088000200E2000400350008003C00BF
:1013A4000000E20020003200050037006000100059
:1013B400E080180002003B0001F02C001A00370006
:1013C4000084BE006011B8006B0920000982CF00C0
:1013D400020039000882CF000441B0006942520083
:1013E4000E00320008003B0082817100610164003C
:1013F4008904D1000884D3008B05E8000442E80086
:10140400F9FF3A00050037000804440089844C00C1
:101414008B05E9000442E900FBFF3A0003000700E2
:101424000AF0A70003E0A8000000060081002000E5
:10143400618055000B003D000B00200061FE2F0071
:101444000100E1001D00340082817100610164002B
:101454008904D1000884D3000000E800FAFF3A00B0
:10146400710020006100640003007000020060004D
:101474000900320061044400E0844C000988A5009E
:10148400050032008B05E8006808E10002003A001C
:101494008904D1000884D300F20F20000258E1002F
:1014A40005003D00C75DDD00F907B20089807500C5
:1014B40008008800000006000BF827001B008800C5
:0C14C400000005000080FA000000060097
:1014D0000000FA0007E0AA0084FC07000080FA0080
:0414E0000000060002
:1006EC000000FA0002000700DE0404000000000015
:1006FC00889FBE008A9FBE008C1F7800590007009F
:10070C00600033006450E1004F0032006420E100CF
:10071C005200320003826C0007003B000905D00038
:10072C000306D000820F54000C065D000200390055
:10073C000200320039008800C30088008582550011
:10074C0004003D000003FD008103FD008502EA006A
:10075C008B854200840F720002003B006000100089
:10076C00E08018006011B8000005EB007A28E10069
:10077C000A00390006008800C75DDD00F707B200EB
:10078C00878075002D003700828171002A00880057
:10079C00610560008180D1000080D3008502E900F2
:1007AC00F9FF3B00060440008784480002003B0030
:1007BC0060041400E0841C000988A30007003200C8
:1007CC008A81710082817100610164008904D10009
:1007DC000884D3008B05E800170037000978A300C4
:1007EC0013003A001600E200130034008B05E900F8
:1007FC000804440089844C000A4474000978A3005E
:10080C000D003A001600E200070034008B05E900E9
:10081C000804440089844C0001003A000B002000BD
:10082C000978A300F7FF32000001EB00020037004B
:10083C00828171002A008800220007000CF0A700BA
:10084C0003E0A800180037006420E10002003A0021
:10085C00838F6C00180033000881BE000280BE003C
:10086C00110037000084BE003C0007000083BE006E
:10087C000485BE000280BE0038000700844F75005E
:10088C00000006000280BE006450E1000500360046
:10089C006420E100020036000968A30001003A0060
:1008AC000880BE0002C0A8004F0678004F05BE00AD
:1008BC004F04BE0000000600F0FF2F00F1FF2700E0
:1008CC00F9FF370081002000618055000B003D00CE
:1008DC000B00200061FE2F000100E1001D00340020
:1008EC0082817100610164008904D1000884D30005
:1008FC000000E800FAFF3A0071002000610064007B
:10090C000300700002006000090032006104440022
:10091C00E0844C000988A500050032008B05E80036
:10092C006808E10002003A008904D1000884D30071
:10093C00F20F20000258E10005003D00C75DDD000C
:10094C00F907B200898075000800880000000600D5
:10095C000BF827001B00880000000500C70ADE000A
:10096C00F107B200F50FB20008003200E1CF4200EF
:10097C000200320002E0A80024000500810F700084
:10098C00010032000408050044000500810F7000CE
:10099C0002003A00140005008502E9000000400046
:1009AC0081C04800FCFF3B0002E0A80024000500C9
:0809BC000080FA0000000600B3
:100D00000000FA000200070096070400000000003F
:100D1000889FBE008A9FBE008C1F780030000700AD
:100D20003700330003866C006450E1002400320079
:100D30006420E100270032006150E100220032000F
:100D40006120E100210032008B854200EB07B100F9
:100D50000134B800003AB8000804420089844A000F
:100D6000013AB8000030B8008880400009014A000C
:100D70000400330000004000818048000201490067
:100D80008B05E900C909DD00830170000100320014
:100D900013002000C814DE004814DD004709DE00FF
:100DA0001200B200C808DE000884700024000700AA
:100DB00001F0A1000CF0A70003E0A8001900370023
:100DC0006120E1001B0032000881BE000280BE00ED
:100DD000F7FF37006150E100FCFF3A0015003700D3
:100DE0000084BE003C0007000083BE000485BE00F6
:100DF0000280BE0038000700844F75000000060026
:100E00000280BE006450E100050036006420E1006D
:100E1000020036000968A30001003A000880BE0005
:100E200002C0A8004F0678004F05BE004F04BE0068
:100E300000000600F0FF2F00F1FF2700F9FF370048
:100E400081002000618055000B003D000B00200058
:100E500061FE2F000100E1001D003400828171005D
:100E6000610164008904D1000884D3000000E80017
:100E7000FAFF3A0071002000610064000300700076
:100E8000020060000900320061044400E0844C006C
:100E90000988A500050032008B05E8006808E1001C
:100EA00002003A008904D1000884D300F20F200028
:100EB0000258E10005003D00C75DDD00F907B20002
:100EC0008980750008008800000006000BF82700E4
:100ED0001B00880000000500C70ADE00F107B20011
:100EE000F50FB20008003200E1CF420002003200EC
:100EF00002E0A80024000500810F7000010032000C
:100F00000408050044000500810F700002003A004B
:100F1000140005008502E9000000400081C048007F
:100F2000FCFF3B0002E0A800240005000080FA005E
:040F300000000600B7
:100A94000000FA00020007007C06040000000000C9
:100AA400889FBE008A9FBE008C1F78003E0007000E
:100AB4004500330003866C006450E1002E003200D0
:100AC4006420E100330032006150E1002F00320065
:100AD4006120E1003100320085855500EB07B0004C
:100AE4000900200008042000050037000804440021
:100AF40089844C000A0031000603430087834B00BD
:100B04000001530081815B00F8FF33000283BE00C3
:100B14001000A8000804440089844C00F6FF390042
:100B2400C639DD0083017300010032001300200088
:100B34008904D1000884D3000998A3000500320079
:100B44000800A7000600A8008904D1000884D30087
:100B54008B05E8008904D1000884D3000001EB0070
:100B64000281D2002800070001F0A1000CF0A700C8
:100B740003E0A8001D0037006420E1001F003200DC
:100B84000881BE000280BE00F7FF37006120E1004B
:100B94001A0032006000B800F3FF370000002000A4
:100BA40001F82700F0FF37000084BE003C00070076
:100BB4000083BE000485BE000280BE00380007002A
:100BC400844F7500000006000280BE006450E100FE
:100BD400050036006420E100020036000968A30025
:100BE40001003A000880BE0002C0A8004F06780049
:100BF4004F05BE004F04BE0000000600F0FF2F00AA
:100C0400F1FF2700F9FF37008100200061805500C3
:100C14000B003D000B00200061FE2F000100E100ED
:100C24001D00340082817100610164008904D100D7
:100C34000884D3000000E800FAFF3A0071002000A5
:100C440061006400030070000200600009003200CB
:100C540061044400E0844C000988A50005003200CA
:100C64008B05E8006808E10002003A008904D1001D
:100C74000884D300F20F20000258E10005003D0073
:100C8400C75DDD00F907B20089807500080088009F
:100C9400000006000BF827001B0088000000050078
:100CA400C70ADE00F107B200F50FB20008003200F7
:100CB400E1CF42000200320002E0A8002400050057
:100CC400810F700001003200040805004400050093
:100CD400810F700002003A00140005008502E9004B
:100CE4000000400081C04800FCFF3B0002E0A80077
:0C0CF400240005000080FA00000006004B
:100F34000000FA00020007000E0804000000000090
:100F44000081BE001F0007000470A70003F0A10089
:100F54006509B100160032000D0035006828E10073
:100F640006003500F0FF2F00F1FF27000600E20025
:100F740013003B00010028000000050000004000B1
:100F8400818048008502E900FCFF3A000800370030
:100F9400F88F420002003C008000EB0000000500D6
:100FA4008100D1000080D3008502E800FCFF3A00F4
:100FB4000600E20002003B0060001000E080180020
:100FC40000000600C70ADE00F107B200F50FB20008
:100FD40008003200E1CF42000200320002E0A80023
:100FE40024000500810F7000010032000408050090
:100FF40044000500810F700002003A00140005004F
:101004008502E9000000400081C04800FCFF3B006D
:1010140002E0A800240005000080FA000000060099
:00102400CC
:101818008A1F78008B1F780077FE070002002800D7
:101828008338240099FC07000200200003F82300F5
:10183800ACFB07000005BE00F8FD0700A2992B00CD
:10184800533A24002CFD0700CF0578004F05780097
:041858000000060086
:101200000400FA008A1F78008B1F78008C1F78007A
:101210001620EF002A2C2000EDFC0700CCCCB300F8
:101220001620EF002A2C2000CBFC07004CC4B30092
:101230001620EF002A2C2000C7FC070007642000BE
:101240000E20ED00FEFF3A001620EF002A2C2000B1
:10125000DFFC0700CCCCB3001620EF002A2C2000C6
:10126000BDFC0700ECCBB3001620EF002A2C2000B9
:10127000B9FC070028052000F71626000E20ED0017
:10128000FEFF3A001020ED00FCFF3A0000000000D5
:101290001620EF002A2C2000CAFD07008082FB00E8
:1012A0001620EF002A2C2000C6FD07000080FB005E
:1012B0004800DD00850040004408DE0000017800A1
:1012C000EF806000102720000008B800821F78001F
:1012D0008000EB002300070002002400C36124000B
:1012E000ECFD07004F0178000007980011079800F7
:1012F000020078008000EB001A0007000E01900049
:101300009E019000F9FC07004F067800CF05780099
:0C1310004F0578000080FA000000060085
:1005D0000000FA00100020000B00DD000001780090
:1005E0008080EA0081017800620045001088600088
:1005F0006200550010886100C6FF070062005500C8
:1006000010087100C9FF07001A0061006000E100D6
:100610000060EF00010032000060EC008080FB0011
:10062000BCFF0700010078000080FA00000006000F
:00063000CA
:1005140007FA20000E20ED00FEFF3A000000000064
:080524000000000000000600C9
:10052C00072820000E20ED00FEFF3A00000000001E
:08053C000000000000000600B1
:100558000000FA00100020000B00DD000001780008
:100568008080EA000620EF006718E10012003E00D4
:100578000C80FB000300DE000080FB0061026000CD
:100588006200450010886000620055001088600015
:100598000800E200020032006200550010087100F5
:1005A800E0FF07006200550010087100CBFF07004C
:1005B8000620EC00ECFF3700CEFF0700CDFF070058
:0805C8000080FA0000000600AB
:1004E400870020000E20ED00FEFF3A00000000000F
:0804F4000000000000000600FA
:1004FC00071920000E20ED00FEFF3A00000000005E
:08050C000000000000000600E1
:1009C4000000FA00100020000B00DD000001780098
:1009D4008080EA000820EF000620EF006718E1009D
:1009E40012003E006200450010886000620055005D
:1009F40010886000BAFE07006200550010087100FC
:100A0400B7FE07001A006100040032001000200045
:100A14000300DD000002720000003700B6FE07008C
:100A2400B5FE07000620EC00ECFF37000440780018
:080A34000080FA00000006003A
:101024000C00FA008C1F78008A9FBE000420EF0099
:101034000620EF000A00BE0041FD07000000E000AA
:101044000060EF0001003C000060EC004F05BE00B2
:101054000040E200030032000020EF000220EF0015
:101064005E0037000A0798001B0798008A9FBE009D
:101074000200200003F823000A00BE0030FD070030
:101084000000E0000060EF0001003D000060EC00A3
:101094004F05BE000040E200090032008A9FBE00F6
:1010A4000E0190009E0190000000200001F8230032
:1010B40077FE07004F05BE0000079800110798004F
:1010C4006A0047008A9FBE00000678000E05900063
:1010D4009E05900058FE07005E0190004191DE00DD
:1010E400020678000005BE0050FD07004F05BE0053
:1010F40000079800110798008A9FBE000200200094
:1011040003F823000A00BE000DFD07000000E00004
:101114000060EF0001003D000060EC004F05BE00E0
:101124000040E200090032008A9FBE000E019000D8
:101134009E0190000000200001F8230054FE0700E7
:101144004F05BE00000798001107980040012000D9
:10115400400798008A9FBE000E0190009E019000F7
:101164000A00BE004AFE07000E0190009E01900096
:101174005DFD0700020020000300240044FE070078
:1011840020079800310798000E0190009E019000FE
:10119400EBFC07000000E0000060EF0001003A00F3
:1011A4000060EC004F05BE000040E2000100320088
:1011B400080037002E009000BE0090000007980041
:1011C400110798004E0090000020ED0040079800A1
:1011D400E0FF3A000E0090009E0090004F06780059
:0811E4000080FA000000060083
:100A3C000400FA000A0798001B0798009E0090001B
:100A4C0000F8270080806000C708DE00E007200067
:100A5C0000805000000E780001F023006200470077
:100A6C009080680000F827008080600062004700DA
:100A7C0090806800110798000E0090009E00900076
:080A8C000080FA0000000600E2
:100630000400FA000A0798001B0798009E0090002B
:1006400000F82700008060004700DE000000460040
:10065000000678006000E10003003D000020EF008C
:100660000220EF001F003700F00F20000060E100C3
:10067000100034000420EF000620EF000A00BE0046
:10068000B0FF07000000E0000060EF0001003D0047
:100690000060EC000040E20003003200F0FF2F0099
:1006A000F1F72F000F003700F0FF2F00F1F72700C0
:1006B0000C00370070C0B3000000FB008060DD005C
:1006C000620047009080680000F82700808060008A
:1006D0006200470090806800110798000E009000AB
:0C06E0009E0090000080FA000000060060
:100544000000FA0014002000ACFF07000080FA004D
:04055400000006009D
:100400000000FA00020007006E0204000000000075
:10041000841F7800140007004F007800110033009B
:10042000F0FF2F00838F6C0006003B000405650081
:100430000A00A7000800370009F0A60010002000FD
:1004400008003700820F5400838F5C0003003900DE
:100450001000200001003E000000200009F0A7006D
:100460000000EA00000006000084BE00060007004D
:100470000083BE000485BE000280BE0002000700AB
:10048000844F750000000600C70ADE00F107B200C5
:10049000F50FB20008003200E1CF42000200320046
:1004A00002E0A80024000500810F70000100320066
:1004B0000408050044000500810F700002003A00A6
:1004C000140005008502E9000000400081C04800DA
:1004D000FCFF3B0002E0A800240005000080FA00B9
:0404E0000000060012
:1014E4000000FA008C1F78008A9FBE000420EF00E1
:1014F4000620EF000A00BE003BFF07000000E000EA
:101504000060EF00010035000060EC004F05BE00F4
:101514004F0678000040E200100032008C1F780073
:101524008A9FBE000200200003F823000A00BE00C8
:1015340003FC07000000E0000060EF0001003D0034
:101544000060EC004F05BE004F0678000040E2004A
:101554000200320010C0B300010037000020EF0089
:101564000080FB000000E2001E003A008C1F78009F
:101574008A9FBE000200200003F82B000A00BE0070
:1015840019FF07000000E0000060EF0001003400D4
:101594000060EC004F05BE004F0678000040E200FA
:1015A4000F0032008C1F78008A9FBE000420EF00D9
:1015B4000620EF000A00BE00E1FB07000000E00087
:1015C4000060EF0001003C000060EC004F05BE002D
:1015D4004F0678000040E2000100320001003700AD
:1015E400050037000020EF000220EF00008EBE004F
:1015F4000A00BE0018003700C758DE000001EB00E7
:10160400F00F200080806000F00720000080500070
:101614007800E100040036000A8EBE000020EF00CE
:101624000220EF000C0037008C1F78008A9FBE0058
:101634000A00BE003EFE07000081EB0048FF0700E1
:101644004F05BE004F067800008EBE001C01BE0090
:101654000A00BE009DFF07000080FA00000006009B
:0016640086
:1011EC000000FA00F4FF2F0082FC07000080FA00D8
:0411FC0000000600E9
:101740000000FA00C758DE000001EB00F00F200097
:1017500080806000F007200000805000800078004A
:101760006000E10010003D000420EF000620EF00C3
:101770000A00BE0073FB07000000E0000060EF00FD
:1017800001003C000060EC000040E2000300320079
:101790000020EF000220EF001D00370000002000B5
:1017A00001F823001A0037007808E1000200360033
:1017B0000A00BE00160037008A9FBE000A00BE0065
:1017C000DCFD07000081EB00E6FE07004F05BE00D0
:1017D0000001BE00829FBE000A01BE0059FB070047
:1017E0000000E0000060EF0001003D000060EC0040
:1017F0004F01BE000040E200040032000000200063
:1018000001F82300B9FB0700010037000200BE0009
:081810000080FA000000060050
:101664000000FA00C758DE000001EB00F00F200074
:1016740080806000F0072000008050008000780027
:101684006000E10010003D000420EF000620EF00A0
:101694000A00BE00AAFB07000000E0000060EF00A3
:1016A40001003D000060EC000040E2000300320055
:1016B4000000200001F82B001E0037000020EF007E
:1016C4000220EF001B0037007808E100020036001A
:1016D4000A00BE00170037008A9FBE000A00BE0041
:1016E40013FE07000081EB001DFF07004F05BE003D
:1016F4000002BE00849FBE000A01BE00BAFE0700BD
:101704000000E0000060EF00010034000060EC0025
:101714004F02BE000040E20005003200020020003B
:1017240003F823000400BE0068FF0700010037002F
:0C1734000400BE000080FA000000060067
:101CD0000020EF00B04088000020EF00A040880006
:101CE0000020EF00D0408800318020000020EF006D
:101CF00080487800F18020000020EF0080487800C4
:101D0000E18020000020EF00804878000180200062
:101D10000020EF0080487800218020000020EF00A4
:101D2000804878001A007800B040880011802000B8
:101D30000020EF00804878001080200010407800DC
:101D40006A04E10041003100108020001080FB0097
:101D50004100DD0000004500900078006081200017
:101D60001008E10004003A0011C0B300E080200038
:101D700010C840003100370030802000104078004B
:101D80006004E10009003A00108020001080FB0090
:101D90004100DD000000450010007800A0408800F0
:101DA0003180200010C0B3008048780010802000EF
:101DB0001080FB004100DD0000004500900078002D
:101DC000408120001008E10004003A0011C0B30077
:101DD0000080200010C8400018003700F08020006C
:101DE000104078006004E10009003A0010802000F3
:101DF0001080FB004100DD0000004500100078006D
:101E0000D0408800F180200010C0B30080487800E6
:101E1000108020001080FB004100DD000000450024
:101E200090007800A08120001008E10003003A0033
:101E300011C0B3002080200010C8400011C0B300C2
:101E40001080200010C84000BBFF3700E080200059
:101E50009040780000802000100CE1000700360060
:101E6000E08020009040780020802000100CE100ED
:101E700002003600B04080002D00370000802000B6
:101E800090407800E0802000100CE1000700360050
:101E9000008020009040780020802000100CE1009D
:101EA00002003600A0408000210037002080200082
:101EB00090407800E0802000100CE1000700360020
:101EC000208020009040780000802000100CE1006D
:101ED00002003600D040800015003700E08020006E
:101EE0009040780000802000100CE10002003A00D1
:101EF000B04080000E003700E08020009040780065
:101F000020802000100CE10002003A00B040800068
:101F100007003700008020009040780020802000DB
:101F2000100CE10002003A00A040800000003700E1
:041F300000000600A7
:1022C0008A1F78009B4078006180450010417800AB
:1022D000628045009041780063804500104078009E
:1022E0006154E10024003A00CCA2A800AA03200017
:1022F00070FE07000185FB006EFE07000285FB00F3
:102300006CFE07000385FB006AFE07000085FB00EA
:1023100068FE07000220EF0000417800020CE10097
:10232000080031000180FB00000046008A1F780091
:102330001085FB005FFE07004F0578000260EC008F
:10234000F6FF37008A1F7800DA00200059FE0700E8
:10235000AA00200057FE07001420EF0055FE0700DA
:102360004F0578004DFE07006000E10001003A00D3
:10237000FCFF3700CCA2A9004F0578000000060042
:002380005D
:101CB4000000FA002302AF0001003700FDFF3700E7
:0C1CC4002A1188000080FA0000000600D1
:101C9C000000FA000020EF002302AF000020EC004F
:081CAC000080FA0000000600B0
:102600008A1F78008B1F78008C1F7800C482A80076
:102610001620EF002A2C2000EDF70700CCCCB300E9
:102620001620EF002A2C2000CBF707004CC4B30083
:102630001620EF002A2C2000C7F707009809200079
:10264000176B29000E20ED00FEFF3A001020ED0070
:10265000FCFF3A0000000000000000001620EF0020
:102660002A2C2000DAF70700CCCCB3001620EF00AC
:102670002A2C2000B8F70700ECCBB3001620EF009F
:102680002A2C2000B4F70700575320000E20ED003D
:10269000FEFF3A00000000001620EF002A2C200068
:1026A000C8F807008082FB001620EF002A2C2000CB
:1026B000C4F807000080FB004800DD000500400072
:1026C000C482A9004F067800CF0578004F05780036
:0426D0000000060000
:102B98003400F8003600F800801F7800200020007C
:102BA8000C000900B01F7800205880006A00E1007E
:102BB80002003100CA42AA0008003700CA42A90030
:102BC800E106200040B020001008E10003003A00B0
:102BD80011E1A9000021EF0005E1A8001100200083
:102BE80040B020001088400084E0A900A001200027
:102BF8000C0009004F1078004F0078003600F900EB
:082C08003400F9000040060051
:102C10003400F8003600F800801F78002000200003
:102C20000C000900B01F78002023A9002003AF008A
:102C300001003700FDFF3700715E8000E0152000C5
:102C40000008E1000A003100705E8000C100DD0074
:102C500080842000810040000083BF00800878004D
:102C600011002000E0BC2000108840000400370064
:102C700071BD200010C0B3008048780005E1A900B4
:102C80008460A900A00120000C0009004F1078000A
:102C90004F0078003600F9003400F90000400600CB
:002CA00034
:102F7800000000000000000047E30000623A000083
:102F88006D200000753B00002B320000103C000053
:102F9800A9E90000813C000024870000C73C00002C
:102FA80050F40000083D0000824500002C3D000060
:102FB800A25F0000493D0000608600005C3D000003
:102FC80083340000633D0000608600005C3D000023
:102FD800A25F0000493D0000824500002C3D000032
:102FE80050F40000083D000024870000C73C0000A2
:102FF800A9E90000813C00002B320000103C0000D1
:103008006D200000753B000047E30000623A0000B5
:083018000000000000000000B0
:0430200000000000AC
:0430240000000000A8
:103028000B0B00000B0B00000B0B00000B0B000040
:043038000B03000086
:04303C000000000090
:04304000000000008C
:043044000000000088
:043048000000000084
:04304C000000000080
:04305000000000007C
:043054000000000078
:08305800000000000000000070
:04306000000000006C
:0200000401F009
:200000000F000000FFFF00000700000083000000A50000005F000000F7000000C30000008B
:00000001FF
