:10000000A811040000000000000000000000000033
:1000100000000000000000000000000000000000E0
:1000200000000000000000000000000000000000D0
:10003000000000006011000000000000000000004F
:10004000000000001A110000000000000000000085
:10005000000000001C120000000000000000000072
:100060000000000000000000000000000000000090
:100070000000000000000000000000000000000080
:100080000000000000000000000000000000000070
:100090000000000000000000000000000000000060
:102350000FBB2000F0FF200020A0B70000002000ED
:1023600034A0B700400020004420B70092130200C0
:102370000000000083FE07000020EF00705D880071
:102380000020EF00405D88000020EF00505D8800D5
:102390000020EF00605D88000020EF000220EF00C9
:1023A000205D8800315D880041B920000020EF00E9
:1023B000804878000020EF000220EF00B05C880029
:1023C000C15C88000020EF00D05C880011B62000BE
:1023D0000020EF008048780021B920000020EF00A5
:1023E0008048780031B920000020EF008048780054
:1023F0000020EF00005D880051B920000020EF00B0
:102400008048780021BA20000020EF008048780042
:102410000020EF00E05C8800C0B92000F05C88007C
:10242000CCA2A900C482A90081B320000020EF0043
:0824300080487800FFFF37002F
:101D84008A1F78008B1F78004074200090407800F0
:101D940000CEB30080C06000407420000148780089
:101DA4006002200046A7B7004074200090407800ED
:101DB400F0C3B30080C06000407420000148780084
:101DC400D0FF2F002CA3B700C022A80000F42F00DE
:101DD400C8A2B700C8A2A900C082A9002143A900D3
:101DE40001198000F0CF2F000080600020A3B7000D
:101DF4002063A90021A3A9002043A80000322000E9
:101E040090407800F0C1B30080C060000032200030
:101E14000148780011198000F0FF21000080600063
:101E240022A3B70011198000F0CF2F0000806000BA
:101E340022A3B7002343A9002223A9002203A90057
:101E440025E3A90020C0B300804078004032200080
:101E540090C06800F0CFB30080C060004032200022
:101E640090C0680040322000014878000020200023
:101E740080007800403220009080680000F021004B
:101E84008080600040322000908068002119880022
:101E940029E3A9000010200080007800803220008F
:101EA4009080680000F02100808060008032200073
:101EB400908068004119880028E3A90010C0B3008D
:101EC400804078008032200090C06800FFC060002D
:101ED4008032200090C068008032200001487800E1
:101EE4002623EF003023EF0021E3A80000002800A0
:101EF40004A1B7009460A8008460A900800C2000AD
:101F040002A1B70005E1A9000000280010A1B70054
:101F140094E0A80084E0A900401F20000CA1B700B1
:101F240011E1A90060C0B30080407800406A20003D
:101F340090C06800FFC06000406A200090C0680044
:101F4400406A2000014878000030200080007800BA
:101F5400606C20009080680000F0210080806000A8
:101F6400606C200090806800313688009560A8007D
:101F74008560A9000AB024000B00200083FE07003E
:101F8400210580000000270000807000A4A0B70095
:101F94000000260080007800600A2000908068001D
:101FA4000000270080806000600A200090806800A4
:101FB400310588000000250080007800800A200098
:101FC400908068000000270080806000800A200064
:101FD400908068004105880058012000B7852500DD
:101FE4000E20ED00FEFF3A001020ED00FCFF3A0049
:0C1FF400CF0578004F05780000000600C3
:101990000800FA00A07B2000D059880060EB2000EE
:1019A00090598800F0FF2F00A0598800807C20000B
:1019B000B05988002022EF000000280022A2B700C2
:1019C0002062A90004FF07000001BE00803E200045
:1019D00001002000A2FE07000001BE0001FF070079
:1019E0004100DE0064004000800078006000470095
:1019F0000A88BE008100E900030035001018D000FD
:101A00001090D200FBFF3700829FBE008A9FBE006D
:101A10000200BE000E0190009E0190000002EB004B
:101A200098FE07004F05BE004F01BE00200798003A
:101A3000310798008A9FBE000200BE000E01900090
:101A40009E0190000002EB00BAFE07004F05BE00A9
:101A50008001780001027800600047005001D10049
:101A6000C080D300640047003008E1002090E1000E
:101A70000700310061804100E0004A0080027800E8
:101A80000103780005017800860178000200370024
:101A900003017800840178000280710033003A006D
:101AA000CDFE07000001BE00803E200001002000A6
:101AB0006BFE07000001BE00CAFE07004100DE0009
:101AC00000A0EC0080007800600047000A88BE009B
:101AD0008100E900030035001018D0001090D200FA
:101AE000FBFF3700829FBE000200BE000E01900087
:101AF0009E0190000002EB0062FE07004F01BE0055
:101B000020079800310798000200BE000E019000E7
:101B10009E0190000002EB0086FE07008001780025
:101B200001027800600047005001D100C080D3005E
:101B3000640047003008E1002090E1000700310018
:101B400061804100E0004A008002780001037800D3
:101B50000501780086017800020037000301780053
:101B6000840178002062A800000037006100510065
:101B7000E0805900401188002222A90021E2A8003B
:101B80002342A80099FE070098FE07000080FA0093
:041B9000000006004B
:0C15D80000882300110020000000060025
:0815E4002000200000000600B9
:1015EC00D8002000775023000E20ED00FEFF3A00BB
:0C15FC001020ED00FCFF3A00000006008B
:101460000000FA00020AB800500088000200B8002C
:1014700081004200032AB800810042000080FA0087
:041480000000060062
:101484000000FA0002000700960A040000000000B1
:101494000800E20002003A00100007000000060005
:1014A400811F78000200E20002003D00600010008D
:1014B400E08018000600E20002003D006001110017
:1014C400E0811900050007004F00E00002003B0026
:1014D40060001000E0801800000006000200070011
:1014E4000480BE00000006006022B800060220004E
:1014F4000000D0008180D2000482D2008582D20014
:101504000000A8000202520083825A0003003B003C
:101514000202420083824A000000A1000603E9009F
:10152400F3FF3A00000006000080FA000000060005
:00153400B7
:101534000000FA0002000700E80A040000000000AE
:101544000800E20002003A00100007000000060054
:10155400839F68000200E20002003D00600010006A
:10156400E08018000600E20002003D006001110066
:10157400E0811900050007004F00E00002003B0075
:1015840060001000E0801800000006006022B8002F
:10159400060220000000D0008180D2000482D20024
:1015A4008582D2000000A8000202520083825A0001
:1015B40003003B000202420083824A000000A100B3
:1015C4000603E900F3FF3A00000006000080FA0079
:0415D400000006000D
:10272400018020000038290008000900B018780052
:04273400000006009B
:102438003400F8003600F800801F780020002000E3
:102448000C000900B01F78008A1F78008B1F7800E5
:102458008560A90043FE070031B920008048780054
:1024680010B62000104078006204E10013003A0022
:10247800015D8000C0B920001008E10009003100AA
:10248800E1B3200000BA20009080400030B920005D
:10249800904878001100200000BA20001088400001
:1024A8000600370011B620000020EF0080487800B1
:1024B80021B9200010C0B3008048780010B6200071
:1024C800104078006004E1000E003A0020B92000B6
:1024D800104078006004E1000A003A0030B920009A
:1024E80090407800A0C3B300000CE10005003A005A
:1024F80011B6200010C0B300804878000020EF001B
:10250800005D880010B62000104078006104E100EA
:1025180010003A0030B9200090407800A0C3B30002
:10252800000CE1000B003200005D80006500E10056
:1025380008003100D1B4200000BA2000908040008B
:1025480030B92000904878001100200000BA20001F
:102558001088400010B62000104078006104E100A7
:1025680022003A00005D80006500E1001F003A008B
:10257800D0B42000104078006304E1000600320067
:10258800D0B4200090407800F0CFB300000CE100F8
:10259800010032000D00370001B52000F05C80001A
:1025A80011487800F05C8000E100400010B5200080
:1025B800904878000020EF00005D880011B62000E8
:1025C80020C0B300804878000800370011B620000A
:1025D8000020EF008048780021B920000020EF009B
:1025E800804878000020EF00005D880020B92000B6
:1025F800104078006104E1000C003A005801200006
:10260800B78525000E20ED00FEFF3A001020ED00F2
:10261800FCFF3A00EBB32000DAB4200076FE070096
:1026280021B920000020EF0080487800CF0578000D
:102638004F057800A00120000C0009004F10780019
:102648004F0078003600F9003400F9000040060019
:0026580082
:101D6C000000FA0000000000000000002682BF0006
:081D7C000080FA0000000600DF
:102000000800FA008A1F78008B1F78008C1F780068
:1020100062004700800478006000470000017800FB
:10202000640047008001780061004500904078001E
:10203000620045001040780073003700140037003C
:1020400015FF0700D05C8800D2FE0700B05C880056
:10205000C15C8800150037000FFF0700D05C8800C6
:102060009FFD0700110037000BFF0700D05C8800C0
:10207000ADFD07000D00370007FF0700D05C8800AA
:10208000C4FE0700B05C8800C15C88000700370010
:102090006104E100EAFF32006204E100EEFF320079
:1020A0006304E100F0FF3200F3FF37005C0037000B
:1020B00033003700D05C800000079800B05C8000DF
:1020C000C15C800020079800310798009340780099
:1020D00020B52000014878006180410090407800E0
:1020E00030B52000014878006280410090407800BF
:1020F00040B520000148780063804100904078009E
:1021000050B52000014878009240780060B520006A
:1021100001487800610041009040780070B52000CF
:102120000148780060002000100798006300450017
:1021300019487800E4004500618044009048780028
:102140002CB520008A0578001AC0B300D6FD070020
:102150000F003700E02B20001007980063004500B7
:1021600019487800E40045006180440090487800F8
:10217000DC5C8000CB86200099FD0700040037005E
:102180006104E100CBFF32006204E100F1FF3200A4
:102190002300370017003700A00020001007980028
:1021A0006300450019487800E40045006180440060
:1021B000904878002C8020008A0578001AC0B3006F
:1021C000B9FD07000F00370000202000100798001D
:1021D0006300450019487800E40045006180440030
:1021E000904878008A0578001E0590005CFD070085
:1021F000040037006204E100E7FF32006304E100FD
:10220000F1FF320006003700610CE1008BFF320065
:10221000620CE100A6FF3200640CE100DDFF320039
:102220004F067800CF0578004F0578000080FA004F
:0422300000000600A4
:101C98008A1F78008B1F78008C1F7800C482A800E8
:101CA8001620EF002A2C200055FE0700CCCCB300EC
:101CB8001620EF002A2C200069FE07004CC4B30050
:101CC8001620EF002A2C200065FE07009809200046
:101CD800176B29000E20ED00FEFF3A001020ED00E2
:101CE800FCFF3A0000000000000000001620EF0092
:101CF8002A2C200042FE0700CCCCB3001620EF00AF
:101D08002A2C200056FE0700ECCBB3001620EF006B
:101D18002A2C200052FE0700575320000E20ED0009
:101D2800FEFF3A00000000001620EF002A2C2000D9
:101D3800A6FD07008082FB001620EF002A2C200059
:101D4800A2FD07000080FB004800DD000500400000
:101D5800C482A9004F067800CF0578004F057800A7
:041D68000000060071
:101608000000FA00100020000B00DD000001780047
:101618008080EA008101780062004500108860003F
:101628006200550010886100ADFC0700620055009B
:101638001008710098FC07001A0061006000E100C2
:101648000060EF00010032000060EC008080FB00C9
:10165800A3FC0700010078000080FA0000000600E3
:0016680082
:1008E80007FA20000E20ED00FEFF3A00000000008D
:0808F8000000000000000600F2
:1008A000072820000E20ED00FEFF3A0000000000A7
:0808B00000000000000006003A
:101668000000FA00100020000B00DD0000017800E7
:101678008080EA000620EF006718E10012003E00B3
:101688000C80FB000300DE000080FB0061026000AC
:1016980062004500108860006200550010886000F4
:1016A8000800E200020032006200550010087100D4
:1016B80079FC070062005500100871007CFC0700E7
:1016C8000620EC00ECFF37007FFC07007EFC0700DB
:0816D8000080FA00000006008A
:1008B800870020000E20ED00FEFF3A000000000037
:0808C800000000000000060022
:1008D000071920000E20ED00FEFF3A000000000086
:0808E00000000000000006000A
:1013D4000000FA00100020000B00DD00000178007E
:1013E4008080EA000820EF000620EF006718E10083
:1013F40012003E0062004500108860006200550043
:10140400108860002BFD0700620055001008710071
:1014140028FD07001A0061000400320010002000BB
:101424000300DD00000272000000370027FD070002
:1014340026FD07000620EC00ECFF3700044078008E
:081444000080FA000000060020
:101B940091B320000020EF00804878000020EF007F
:101BA4000220EF00705B8800815B88000020EF005A
:101BB4000220EF00105B8800215B88000020EF000A
:101BC4000220EF00305B8800415B88000020EF00BA
:101BD4000220EF00505B8800615B880090B3200016
:101BE400104078007E04E10022003100EDFC070083
:101BF400205D8000315D8000505B8800615B88005F
:101C0400205D8000315D8000325B8000435B80009A
:101C14001DFB070002002000030424000AFE070045
:101C24000000E0000060EF0001003C000060EC00F8
:101C34000040E2000A003200725B8000835B800097
:101C4400505B8000615B8000ECF90700705B8800EA
:101C5400815B880011C0B30090B3200010C840001D
:101C6400505B8000615B8000305B8800415B8800D2
:101C7400DAFF370002002000031F2400705B80009D
:101C8400815B80001FFC0700105B8800215B8800DB
:041C94000000060046
:100FA8000C00FA00C482A80041B920000020EF001C
:100FB800804878000020EF00E0598800CA42A90064
:100FC80005E1A9000621EF0011E1A8000020EF00CB
:100FD800705D880040B92000104078006104E1008D
:100FE80001003200FBFF370040B9200010407800B4
:100FF8006104E10066003A00C01F2000004088003C
:101008000020EF004043880041438000E0152000A5
:101018000008E1005B00310040438000C100DD00B2
:10102800C086200081014000130178000180200063
:10103800A08620001108510093007800008020004D
:101048001008E1000B00310040438000C100DD00C2
:10105800C086200081004000004080001100500040
:101068004100DD001101400001802000A086200021
:1010780011085100400120009040880090408000F5
:101088006000E1000F00320090408000C200DD00E7
:101098004081200001014000904080000020ED00C8
:1010A800C200DD00408120000100400030197800B6
:1010B80020117800110020002081200010881000E5
:1010C800EEFF3700504380008000EB0092FD0700E0
:1010D800A0408800B14088000020EF000220EF0007
:1010E80060408800714088000020EF009040880030
:1010F800904080007500E1001500310090408000AC
:101108004201DD00C032290082004000B1017800B0
:101118002102780040812000020140001200BE0038
:10112800030178008401780068FE070062408000AF
:1011380073408000B0FC0700604088007140880060
:10114800110020002081200010884000E8FF3700AF
:101158006040800071408000E7FD07008040880003
:10116800414380004109DD00C186200082804000A3
:101178008008780011002000808620001088400038
:10118800A1FF370041B9200020C0B3008048780093
:1011980040B92000104078006204E10088003A005D
:1011A80000B32000801F7800E0152000801F780021
:1011B800C0862000801F780045FD07006F00B10041
:1011C8007059880080598000405988000020EF003D
:1011D8005059880050598000C100DD00C0862000A9
:1011E8000100400090007800E0B220001008E10003
:1011F8000400310011002000A0B220001088400037
:10120800F4FF370041598000A0B220001080500040
:10121800C100DE00A0B22000908040006159880023
:1012280074805000E05B8800F4814000F35B880024
:10123800C100DD00C08620000100400010017800D8
:10124800025C8800C118DD00C08620000100400053
:101258001000780000079800905B88000200780072
:10126800CF80DE000081EB002BFD070040079800CF
:1012780051079800A05B8800B15B88007059800016
:10128800CF80DE000081EB0023FD070020079800D7
:1012980031079800C05B8800D15B88000E00900081
:1012A800CF80DE000081EB001BFD070000079800DF
:1012B80011079800809FBE000E0090009E009000CD
:1012C800305C8800415C88004F00BE004E009000F2
:1012D800DE009000829FBE000E0190009E019000EB
:1012E80068FD07004F01BE002E019000BE0190006E
:1012F8002007980031079800000020000100240012
:10130800F2FD07000007980011079800A05B800015
:10131800B15B8000829FBE000E0190009E0190008C
:1013280058FD07004F01BE00325C8000435C80001E
:1013380031FC07000200200003002400E3FD070041
:1013480000079800110798002E009000BE0090003A
:10135800829FBE000E0190009E01900068FE07006B
:101368004F01BE00505C8800615C880002002000CC
:10137800031A2400D5FD070002002000030A2400F8
:10138800D2FD0700705C8800815C8800605980008D
:101398008000EB00E0FC070002002000030A2400A4
:1013A800CAFD0700105C8800215C8800725C800020
:1013B800835C800010FC0700205D8800315D880098
:0C13C800C482A9000080FA0000000600AA
:1006D8000000FA002EB997003EB89700CEB89700F0
:1006E800B10278000009EB000002E90007003400BD
:1006F800B10178000328E10002003C0053008800A3
:10070800040950000402E900F9FF3C0005008800D4
:080718000080FA000000060059
:100720000000FA000200070042040400000000007C
:100730000400E20006003A000005EB000200E200BF
:100740000F003E000000E200270032000C003700DE
:10075000A10088000200E2000400350008003C000F
:100760000000E200200032000500370060001000A9
:10077000E080180002003B0001F02C001A00370056
:100780000084BE006011B8006B0920000982CF0010
:10079000020039000882CF000441B00069425200D3
:1007A0000E00320008003B0082817100610164008C
:1007B0008904D1000884D3008B05E8000442E800D6
:1007C000F9FF3A00050037000804440089844C0012
:1007D0008B05E9000442E900FBFF3A000300070033
:1007E0000AF0A70003E0A800000006008100200036
:1007F000618055000B003D000B00200061FE2F00C2
:100800000100E1001D00340082817100610164007B
:100810008904D1000884D3000000E800FAFF3A0000
:10082000710020006100640003007000020060009D
:100830000900320061044400E0844C000988A500EE
:10084000050032008B05E8006808E10002003A006C
:100850008904D1000884D300F20F20000258E1007F
:1008600005003D00C75DDD00F907B2008980750015
:1008700008008800000006000BF827001B00880015
:0C088000000005000080FA0000000600E7
:10088C000000FA0007E0AA00DAFE07000080FA0078
:04089C000000060052
:100400000000FA000200070068030400000000007A
:10041000889FBE008A9FBE008C1F7800590007008D
:10042000600033006450E1004F0032006420E100BE
:100430005200320003826C0007003B000905D00027
:100440000306D000820F54000C065D000200390044
:100450000200320039008800C30088008582550000
:1004600004003D000003FD008103FD008502EA0059
:100470008B854200840F720002003B006000100078
:10048000E08018006011B8000005EB007A28E10058
:100490000A00390006008800C75DDD00F707B200DA
:1004A000878075002D003700828171002A00880046
:1004B000610560008180D1000080D3008502E900E1
:1004C000F9FF3B00060440008784480002003B001F
:1004D00060041400E0841C000988A30007003200B7
:1004E0008A81710082817100610164008904D100F8
:1004F0000884D3008B05E800170037000978A300B3
:1005000013003A001600E200130034008B05E900E6
:100510000804440089844C000A4474000978A3004C
:100520000D003A001600E200070034008B05E900D8
:100530000804440089844C0001003A000B002000AC
:100540000978A300F7FF32000001EB00020037003A
:10055000828171002A008800220007000CF0A700A9
:1005600003E0A800180037006420E10002003A0010
:10057000838F6C00180033000881BE000280BE002B
:10058000110037000084BE003C0007000083BE005D
:100590000485BE000280BE0038000700844F75004D
:1005A000000006000280BE006450E1000500360035
:1005B0006420E100020036000968A30001003A004F
:1005C0000880BE0002C0A8004F0678004F05BE009C
:1005D0004F04BE0000000600F0FF2F00F1FF2700CF
:1005E000F9FF370081002000618055000B003D00BD
:1005F0000B00200061FE2F000100E1001D0034000F
:1006000082817100610164008904D1000884D300F3
:100610000000E800FAFF3A00710020006100640069
:100620000300700002006000090032006104440011
:10063000E0844C000988A500050032008B05E80025
:100640006808E10002003A008904D1000884D30060
:10065000F20F20000258E10005003D00C75DDD00FB
:10066000F907B200898075000800880000000600C4
:100670000BF827001B00880000000500C70ADE00F9
:10068000F107B200F50FB20008003200E1CF4200DE
:100690000200320002E0A80024000500810F700073
:1006A000010032000408050044000500810F7000BD
:1006B00002003A00140005008502E9000000400035
:1006C00081C04800FCFF3B0002E0A80024000500B8
:0806D0000080FA0000000600A2
:100AD4000000FA0002000700800604000000000085
:100AE400889FBE008A9FBE008C1F780030000700DC
:100AF4003700330003866C006450E10024003200A8
:100B04006420E100270032006150E100220032003D
:100B14006120E100210032008B854200EB07B10027
:100B24000134B800003AB8000804420089844A003D
:100B3400013AB8000030B8008880400009014A003A
:100B44000400330000004000818048000201490095
:100B54008B05E900C909DD00830170000100320042
:100B640013002000C814DE004814DD004709DE002D
:100B74001200B200C808DE000884700024000700D8
:100B840001F0A1000CF0A70003E0A8001900370051
:100B94006120E1001B0032000881BE000280BE001B
:100BA400F7FF37006150E100FCFF3A001500370001
:100BB4000084BE003C0007000083BE000485BE0024
:100BC4000280BE0038000700844F75000000060054
:100BD4000280BE006450E100050036006420E1009C
:100BE400020036000968A30001003A000880BE0034
:100BF40002C0A8004F0678004F05BE004F04BE0097
:100C040000000600F0FF2F00F1FF2700F9FF370076
:100C140081002000618055000B003D000B00200086
:100C240061FE2F000100E1001D003400828171008B
:100C3400610164008904D1000884D3000000E80045
:100C4400FAFF3A00710020006100640003007000A4
:100C5400020060000900320061044400E0844C009A
:100C64000988A500050032008B05E8006808E1004A
:100C740002003A008904D1000884D300F20F200056
:100C84000258E10005003D00C75DDD00F907B20030
:100C94008980750008008800000006000BF8270012
:100CA4001B00880000000500C70ADE00F107B2003F
:100CB400F50FB20008003200E1CF4200020032001A
:100CC40002E0A80024000500810F7000010032003A
:100CD4000408050044000500810F700002003A007A
:100CE400140005008502E9000000400081C04800AE
:100CF400FCFF3B0002E0A800240005000080FA008D
:040D040000000600E5
:100D08000000FA0002000700B60704000000000017
:100D1800889FBE008A9FBE008C1F78003E00070097
:100D28004500330003866C006450E1002E00320059
:100D38006420E100330032006150E1002F003200EE
:100D48006120E1003100320085855500EB07B000D5
:100D580009002000080420000500370008044400AA
:100D680089844C000A0031000603430087834B0046
:100D78000001530081815B00F8FF33000283BE004D
:100D88001000A8000804440089844C00F6FF3900CC
:100D9800C639DD0083017300010032001300200012
:100DA8008904D1000884D3000998A3000500320003
:100DB8000800A7000600A8008904D1000884D30011
:100DC8008B05E8008904D1000884D3000001EB00FA
:100DD8000281D2002800070001F0A1000CF0A70052
:100DE80003E0A8001D0037006420E1001F00320066
:100DF8000881BE000280BE00F7FF37006120E100D5
:100E08001A0032006000B800F3FF3700000020002D
:100E180001F82700F0FF37000084BE003C000700FF
:100E28000083BE000485BE000280BE0038000700B3
:100E3800844F7500000006000280BE006450E10087
:100E4800050036006420E100020036000968A300AE
:100E580001003A000880BE0002C0A8004F067800D2
:100E68004F05BE004F04BE0000000600F0FF2F0033
:100E7800F1FF2700F9FF370081002000618055004D
:100E88000B003D000B00200061FE2F000100E10077
:100E98001D00340082817100610164008904D10061
:100EA8000884D3000000E800FAFF3A00710020002F
:100EB8006100640003007000020060000900320055
:100EC80061044400E0844C000988A5000500320054
:100ED8008B05E8006808E10002003A008904D100A7
:100EE8000884D300F20F20000258E10005003D00FD
:100EF800C75DDD00F907B200898075000800880029
:100F0800000006000BF827001B0088000000050001
:100F1800C70ADE00F107B200F50FB2000800320080
:100F2800E1CF42000200320002E0A80024000500E0
:100F3800810F70000100320004080500440005001C
:100F4800810F700002003A00140005008502E900D4
:100F58000000400081C04800FCFF3B0002E0A80000
:0C0F6800240005000080FA0000000600D4
:100900000000FA0002000700F404040000000000E8
:100910000081BE001F0007000470A70003F0A100C3
:100920006509B100160032000D0035006828E100AD
:1009300006003500F0FF2F00F1FF27000600E2005F
:1009400013003B00010028000000050000004000EB
:10095000818048008502E900FCFF3A00080037006A
:10096000F88F420002003C008000EB000000050010
:100970008100D1000080D3008502E800FCFF3A002E
:100980000600E20002003B0060001000E08018005A
:1009900000000600C70ADE00F107B200F50FB20042
:1009A00008003200E1CF42000200320002E0A8005D
:1009B00024000500810F70000100320004080500CA
:1009C00044000500810F700002003A001400050089
:1009D0008502E9000000400081C04800FCFF3B00A8
:1009E00002E0A800240005000080FA0000000600D4
:0009F00007
:10144C000000FA001400200066FD07000080FA007E
:04145C000000060086
:1009F0000000FA0002000700660504000000000085
:100A0000841F7800140007004F00780011003300A5
:100A1000F0FF2F00838F6C0006003B00040565008B
:100A20000A00A7000800370009F0A6001000200007
:100A300008003700820F5400838F5C0003003900E8
:100A40001000200001003E000000200009F0A70077
:100A50000000EA00000006000084BE000600070057
:100A60000083BE000485BE000280BE0002000700B5
:100A7000844F750000000600C70ADE00F107B200CF
:100A8000F50FB20008003200E1CF42000200320050
:100A900002E0A80024000500810F70000100320070
:100AA0000408050044000500810F700002003A00B0
:100AB000140005008502E9000000400081C04800E4
:100AC000FCFF3B0002E0A800240005000080FA00C3
:040AD000000006001C
:1016E000C482A80041B920000020EF0080487800A3
:1016F0000020EF00E0598800CA42A90005E1A900D6
:101700000621EF0011E1A8000020EF00705D8800C5
:1017100040B92000104078006104E100010032006F
:08172000FBFF3700000006008A
:10172800C482A8000021EF0005E1A80041B920000B
:101738000020EF00804878000020EF00705D8800EE
:1017480040B92000104078006104E1000100320037
:08175800FBFF37000000060052
:1018A8000200FA008A1F7800600147008201780070
:1018B8001B427800618045009042780062804500B4
:1018C80010437800E3804500914378006480450028
:1018D8001044780011497800618041000848780078
:1018E8006154E10025003A00CCA2A800AA03200018
:1018F8009EFD07000485FB009CFD07000585FB0095
:101908009AFD07000685FB0098FD07000785FB0088
:1019180096FD07000885FB0094FD07000220EF00F4
:10192800600047001008E100070031000100460090
:101938008A1F78001085FB008CFD07004F05780092
:101948000220EC00F6FF37008A1F7800DA0020003A
:1019580086FD0700AA00200084FD07001420EF0080
:1019680082FD07004F05780087FD07006000E10051
:1019780001003A00FCFF3700CCA2A9004F0578000F
:081988000080FA0000000600D7
:100F74000000FA002302AF0001003700FDFF370034
:0C0F84002A1188000080FA00000006001E
:100F90000000FA000020EF002302AF000020EC0068
:080FA0000080FA0000000600C9
:1017E000C402FA00202C200000004700000178000D
:1017F00080012000800178000020EF00405D88001B
:10180000415D8000E01520000008E1001400310077
:1018100080BA200010804500104078000080FB0056
:1018200010A79A00405D80004100DD00E000470005
:101830000080400012487800405D80004100DD00DB
:101840000020EC008080400061004100904878005A
:101850001100200080BA200010884000E8FF370007
:1018600060014700C02B20000000410013487800B1
:10187000D02B20008000410061804100904878001A
:101880008C1F78008A9FBE00020678008A057800C7
:101890001AC0B300040007004F05BE004F067800D1
:0818A0000080FA0000000600C0
:101760000402FA008C1F78000420EF000020EF0034
:10177000405D880080BA20001050E1000F00360064
:10178000E000470080BA2000108040000248780046
:10179000E100410001017800F00F20000008E100A5
:1017A000020036000420EF00000037001100200086
:1017B00080BA200010884000EEFF3700600047002C
:1017C0008A1F7800000678001AC0B30036000700B0
:1017D0004F0578004F0678000080FA0000000600F0
:0017E00009
:102234003400F8003600F800801F780020002000E9
:102244000C000900B01F7800E05980006A00E1002A
:1022540002003100CA42AA000D003700CA42A90098
:10226400E1062000C0B320001008E10008003A0095
:1022740011E1A9000021EF0005E1A80041B9200007
:102284000020EF00804878000020EF00705D880097
:1022940011002000C0B320001088400084E0A90091
:1022A400A00120000C0009004F1078004F007800B6
:0C22B4003600F9003400F900004006007C
:1022C0003400F8003600F800801F7800200020005D
:1022D0000C000900B01F78002023A9002003AF00E4
:1022E00001003700FDFF3700715D8000E015200020
:1022F0000008E1000A003100705D8000C100DD00CF
:10230000C0862000810040000083BF008008780064
:1023100011002000E0BA20001088400004003700BF
:1023200041B9200010C0B3008048780005E1A90041
:102330008460A900A00120000C0009004F10780063
:102340004F0078003600F9003400F9000040060024
:002350008D
:10265800000000000000000047E30000623A0000AC
:102668006D200000753B00002B320000103C00007C
:10267800A9E90000813C000024870000C73C000055
:1026880050F40000083D0000824500002C3D000089
:10269800A25F0000493D0000608600005C3D00002C
:1026A80083340000633D0000608600005C3D00004C
:1026B800A25F0000493D0000824500002C3D00005B
:1026C80050F40000083D000024870000C73C0000CB
:1026D800A9E90000813C00002B320000103C0000FA
:1026E8006D200000753B000047E30000623A0000DF
:0826F8000000000000000000DA
:0427000000000000D5
:102704000B0B00000B0B00000B0B00000B0B00006D
:042714000B030000B3
:082718000000000000000000B9
:0427200000000000B5
:0200000401F009
:200000000F000000FFFF00000700000083000000A50000005F000000F7000000C30000008B
:00000001FF
